{
  "_format": "hh-sol-artifact-1",
  "contractName": "WalletFactory",
  "sourceName": "contracts/WalletFactory.sol",
  "abi": [
    {
      "anonymous": false,
      "inputs": [
        {
          "indexed": true,
          "internalType": "address",
          "name": "owner",
          "type": "address"
        },
        {
          "indexed": false,
          "internalType": "address",
          "name": "wallet",
          "type": "address"
        }
      ],
      "name": "WalletCreated",
      "type": "event"
    },
    {
      "inputs": [],
      "name": "createWallet",
      "outputs": [],
      "stateMutability": "nonpayable",
      "type": "function"
    },
    {
      "inputs": [
        {
          "internalType": "address",
          "name": "user",
          "type": "address"
        }
      ],
      "name": "getUserWallets",
      "outputs": [
        {
          "internalType": "address[]",
          "name": "",
          "type": "address[]"
        }
      ],
      "stateMutability": "view",
      "type": "function"
    },
    {
      "inputs": [
        {
          "internalType": "address",
          "name": "user",
          "type": "address"
        }
      ],
      "name": "getWallets",
      "outputs": [
        {
          "internalType": "address[]",
          "name": "",
          "type": "address[]"
        }
      ],
      "stateMutability": "view",
      "type": "function"
    },
    {
      "inputs": [
        {
          "internalType": "address",
          "name": "",
          "type": "address"
        },
        {
          "internalType": "uint256",
          "name": "",
          "type": "uint256"
        }
      ],
      "name": "userWallets",
      "outputs": [
        {
          "internalType": "address",
          "name": "",
          "type": "address"
        }
      ],
      "stateMutability": "view",
      "type": "function"
    }
  ],
  "bytecode": "0x608060405234801561001057600080fd5b50611be7806100206000396000f3fe608060405234801561001057600080fd5b506004361061004c5760003560e01c80630155e0981461005157806311ebbf2414610081578063422c29a41461008b5780636cbae157146100bb575b600080fd5b61006b6004803603810190610066919061049f565b6100eb565b60405161007891906104ee565b60405180910390f35b610089610139565b005b6100a560048036038101906100a09190610509565b610261565b6040516100b291906105f4565b60405180910390f35b6100d560048036038101906100d09190610509565b61032d565b6040516100e291906105f4565b60405180910390f35b6000602052816000526040600020818154811061010757600080fd5b906000526020600020016000915091509054906101000a900473ffffffffffffffffffffffffffffffffffffffff1681565b600033604051610148906103f9565b61015291906104ee565b604051809103906000f08015801561016e573d6000803e3d6000fd5b5090506000803373ffffffffffffffffffffffffffffffffffffffff1673ffffffffffffffffffffffffffffffffffffffff168152602001908152602001600020819080600181540180825580915050600190039060005260206000200160009091909190916101000a81548173ffffffffffffffffffffffffffffffffffffffff021916908373ffffffffffffffffffffffffffffffffffffffff1602179055503373ffffffffffffffffffffffffffffffffffffffff167f5b03bfed1c14a02bdeceb5fa582eb1a5765fc0bc64ca0e6af4c20afc9487f0818260405161025691906104ee565b60405180910390a250565b60606000808373ffffffffffffffffffffffffffffffffffffffff1673ffffffffffffffffffffffffffffffffffffffff16815260200190815260200160002080548060200260200160405190810160405280929190818152602001828054801561032157602002820191906000526020600020905b8160009054906101000a900473ffffffffffffffffffffffffffffffffffffffff1673ffffffffffffffffffffffffffffffffffffffff16815260200190600101908083116102d7575b50505050509050919050565b60606000808373ffffffffffffffffffffffffffffffffffffffff1673ffffffffffffffffffffffffffffffffffffffff1681526020019081526020016000208054806020026020016040519081016040528092919081815260200182805480156103ed57602002820191906000526020600020905b8160009054906101000a900473ffffffffffffffffffffffffffffffffffffffff1673ffffffffffffffffffffffffffffffffffffffff16815260200190600101908083116103a3575b50505050509050919050565b61159b8061061783390190565b600080fd5b600073ffffffffffffffffffffffffffffffffffffffff82169050919050565b60006104368261040b565b9050919050565b6104468161042b565b811461045157600080fd5b50565b6000813590506104638161043d565b92915050565b6000819050919050565b61047c81610469565b811461048757600080fd5b50565b60008135905061049981610473565b92915050565b600080604083850312156104b6576104b5610406565b5b60006104c485828601610454565b92505060206104d58582860161048a565b9150509250929050565b6104e88161042b565b82525050565b600060208201905061050360008301846104df565b92915050565b60006020828403121561051f5761051e610406565b5b600061052d84828501610454565b91505092915050565b600081519050919050565b600082825260208201905092915050565b6000819050602082019050919050565b61056b8161042b565b82525050565b600061057d8383610562565b60208301905092915050565b6000602082019050919050565b60006105a182610536565b6105ab8185610541565b93506105b683610552565b8060005b838110156105e75781516105ce8882610571565b97506105d983610589565b9250506001810190506105ba565b5085935050505092915050565b6000602082019050818103600083015261060e8184610596565b90509291505056fe60806040523480156200001157600080fd5b506040516200159b3803806200159b833981810160405281019062000037919062000235565b80600073ffffffffffffffffffffffffffffffffffffffff168173ffffffffffffffffffffffffffffffffffffffff1603620000ad5760006040517f1e4fbdf7000000000000000000000000000000000000000000000000000000008152600401620000a4919062000278565b60405180910390fd5b620000be816200010760201b60201c565b5033600160006101000a81548173ffffffffffffffffffffffffffffffffffffffff021916908373ffffffffffffffffffffffffffffffffffffffff1602179055505062000295565b60008060009054906101000a900473ffffffffffffffffffffffffffffffffffffffff169050816000806101000a81548173ffffffffffffffffffffffffffffffffffffffff021916908373ffffffffffffffffffffffffffffffffffffffff1602179055508173ffffffffffffffffffffffffffffffffffffffff168173ffffffffffffffffffffffffffffffffffffffff167f8be0079c531659141344cd1fd0a4f28419497f9722a3daafe3b4186f6b6457e060405160405180910390a35050565b600080fd5b600073ffffffffffffffffffffffffffffffffffffffff82169050919050565b6000620001fd82620001d0565b9050919050565b6200020f81620001f0565b81146200021b57600080fd5b50565b6000815190506200022f8162000204565b92915050565b6000602082840312156200024e576200024d620001cb565b5b60006200025e848285016200021e565b91505092915050565b6200027281620001f0565b82525050565b60006020820190506200028f600083018462000267565b92915050565b6112f680620002a56000396000f3fe6080604052600436106100955760003560e01c8063715018a611610059578063715018a6146101d45780638da5cb5b146101eb578063b6468a6114610216578063c45a01551461023f578063f2fde38b1461026a576100ea565b806312065fe0146100ef5780633aecd0e31461011a5780634fab2b7e1461015757806351422e971461018257806364a197f3146101ab576100ea565b366100ea573373ffffffffffffffffffffffffffffffffffffffff167f88a5966d370b9919b20f3e2c13ff65706f196a4e32cc2c12bf57088f88525874346040516100e09190610ba7565b60405180910390a2005b600080fd5b3480156100fb57600080fd5b50610104610293565b6040516101119190610ba7565b60405180910390f35b34801561012657600080fd5b50610141600480360381019061013c9190610c25565b61029b565b60405161014e9190610ba7565b60405180910390f35b34801561016357600080fd5b5061016c61031e565b6040516101799190610ba7565b60405180910390f35b34801561018e57600080fd5b506101a960048036038101906101a49190610c7e565b610324565b005b3480156101b757600080fd5b506101d260048036038101906101cd9190610cfc565b610573565b005b3480156101e057600080fd5b506101e96106bd565b005b3480156101f757600080fd5b506102006106d1565b60405161020d9190610d4b565b60405180910390f35b34801561022257600080fd5b5061023d60048036038101906102389190610c7e565b6106fa565b005b34801561024b57600080fd5b5061025461098f565b6040516102619190610d4b565b60405180910390f35b34801561027657600080fd5b50610291600480360381019061028c9190610c25565b6109b5565b005b600047905090565b60008173ffffffffffffffffffffffffffffffffffffffff166370a08231306040518263ffffffff1660e01b81526004016102d69190610d4b565b602060405180830381865afa1580156102f3573d6000803e3d6000fd5b505050506040513d601f19601f820116820180604052508101906103179190610d7b565b9050919050565b6103e881565b61032c610a3b565b600073ffffffffffffffffffffffffffffffffffffffff168273ffffffffffffffffffffffffffffffffffffffff160361039b576040517f08c379a000000000000000000000000000000000000000000000000000000000815260040161039290610e05565b60405180910390fd5b804710156103de576040517f08c379a00000000000000000000000000000000000000000000000000000000081526004016103d590610e71565b60405180910390fd5b60006103e8826103ee9190610ec0565b90508273ffffffffffffffffffffffffffffffffffffffff1663a9059cbb33836040518363ffffffff1660e01b815260040161042b929190610f02565b6020604051808303816000875af115801561044a573d6000803e3d6000fd5b505050506040513d601f19601f8201168201806040525081019061046e9190610f63565b5060008073ffffffffffffffffffffffffffffffffffffffff168360405161049590610fc1565b60006040518083038185875af1925050503d80600081146104d2576040519150601f19603f3d011682016040523d82523d6000602084013e6104d7565b606091505b505090508061051b576040517f08c379a000000000000000000000000000000000000000000000000000000000815260040161051290611022565b60405180910390fd5b3373ffffffffffffffffffffffffffffffffffffffff167f9e986b40318e49ea230800270ded64889cbc9dedb0f85ee6a5b01a80e47d87bc85858560405161056593929190611042565b60405180910390a250505050565b61057b610a3b565b804710156105be576040517f08c379a00000000000000000000000000000000000000000000000000000000081526004016105b5906110c5565b60405180910390fd5b60008273ffffffffffffffffffffffffffffffffffffffff16826040516105e490610fc1565b60006040518083038185875af1925050503d8060008114610621576040519150601f19603f3d011682016040523d82523d6000602084013e610626565b606091505b505090508061066a576040517f08c379a000000000000000000000000000000000000000000000000000000000815260040161066190611131565b60405180910390fd5b8273ffffffffffffffffffffffffffffffffffffffff167f510ffb4dcab972ae9d2007a58e13f1b0881776d23cd8f5cc32f8c5be2dbf70d2836040516106b09190610ba7565b60405180910390a2505050565b6106c5610a3b565b6106cf6000610ac2565b565b60008060009054906101000a900473ffffffffffffffffffffffffffffffffffffffff16905090565b610702610a3b565b600073ffffffffffffffffffffffffffffffffffffffff168273ffffffffffffffffffffffffffffffffffffffff1603610771576040517f08c379a000000000000000000000000000000000000000000000000000000000815260040161076890610e05565b60405180910390fd5b60006103e8826107819190611180565b9050804710156107c6576040517f08c379a00000000000000000000000000000000000000000000000000000000081526004016107bd906111fd565b60405180910390fd5b60008373ffffffffffffffffffffffffffffffffffffffff166323b872dd3330866040518463ffffffff1660e01b81526004016108059392919061121d565b6020604051808303816000875af1158015610824573d6000803e3d6000fd5b505050506040513d601f19601f820116820180604052508101906108489190610f63565b90508061088a576040517f08c379a0000000000000000000000000000000000000000000000000000000008152600401610881906112a0565b60405180910390fd5b60003373ffffffffffffffffffffffffffffffffffffffff16836040516108b090610fc1565b60006040518083038185875af1925050503d80600081146108ed576040519150601f19603f3d011682016040523d82523d6000602084013e6108f2565b606091505b5050905080610936576040517f08c379a000000000000000000000000000000000000000000000000000000000815260040161092d90611131565b60405180910390fd5b3373ffffffffffffffffffffffffffffffffffffffff167f511467606f74489e5072b3e63d96443eb95409cf6a02686516a18b6058b0c8d686868660405161098093929190611042565b60405180910390a25050505050565b600160009054906101000a900473ffffffffffffffffffffffffffffffffffffffff1681565b6109bd610a3b565b600073ffffffffffffffffffffffffffffffffffffffff168173ffffffffffffffffffffffffffffffffffffffff1603610a2f5760006040517f1e4fbdf7000000000000000000000000000000000000000000000000000000008152600401610a269190610d4b565b60405180910390fd5b610a3881610ac2565b50565b610a43610b86565b73ffffffffffffffffffffffffffffffffffffffff16610a616106d1565b73ffffffffffffffffffffffffffffffffffffffff1614610ac057610a84610b86565b6040517f118cdaa7000000000000000000000000000000000000000000000000000000008152600401610ab79190610d4b565b60405180910390fd5b565b60008060009054906101000a900473ffffffffffffffffffffffffffffffffffffffff169050816000806101000a81548173ffffffffffffffffffffffffffffffffffffffff021916908373ffffffffffffffffffffffffffffffffffffffff1602179055508173ffffffffffffffffffffffffffffffffffffffff168173ffffffffffffffffffffffffffffffffffffffff167f8be0079c531659141344cd1fd0a4f28419497f9722a3daafe3b4186f6b6457e060405160405180910390a35050565b600033905090565b6000819050919050565b610ba181610b8e565b82525050565b6000602082019050610bbc6000830184610b98565b92915050565b600080fd5b600073ffffffffffffffffffffffffffffffffffffffff82169050919050565b6000610bf282610bc7565b9050919050565b610c0281610be7565b8114610c0d57600080fd5b50565b600081359050610c1f81610bf9565b92915050565b600060208284031215610c3b57610c3a610bc2565b5b6000610c4984828501610c10565b91505092915050565b610c5b81610b8e565b8114610c6657600080fd5b50565b600081359050610c7881610c52565b92915050565b60008060408385031215610c9557610c94610bc2565b5b6000610ca385828601610c10565b9250506020610cb485828601610c69565b9150509250929050565b6000610cc982610bc7565b9050919050565b610cd981610cbe565b8114610ce457600080fd5b50565b600081359050610cf681610cd0565b92915050565b60008060408385031215610d1357610d12610bc2565b5b6000610d2185828601610ce7565b9250506020610d3285828601610c69565b9150509250929050565b610d4581610be7565b82525050565b6000602082019050610d606000830184610d3c565b92915050565b600081519050610d7581610c52565b92915050565b600060208284031215610d9157610d90610bc2565b5b6000610d9f84828501610d66565b91505092915050565b600082825260208201905092915050565b7f546f6b656e206e6f6e2076616c69646f00000000000000000000000000000000600082015250565b6000610def601083610da8565b9150610dfa82610db9565b602082019050919050565b60006020820190508181036000830152610e1e81610de2565b9050919050565b7f53616c646f2045544820696e73756666696369656e7465000000000000000000600082015250565b6000610e5b601783610da8565b9150610e6682610e25565b602082019050919050565b60006020820190508181036000830152610e8a81610e4e565b9050919050565b7f4e487b7100000000000000000000000000000000000000000000000000000000600052601160045260246000fd5b6000610ecb82610b8e565b9150610ed683610b8e565b9250828202610ee481610b8e565b91508282048414831517610efb57610efa610e91565b5b5092915050565b6000604082019050610f176000830185610d3c565b610f246020830184610b98565b9392505050565b60008115159050919050565b610f4081610f2b565b8114610f4b57600080fd5b50565b600081519050610f5d81610f37565b92915050565b600060208284031215610f7957610f78610bc2565b5b6000610f8784828501610f4e565b91505092915050565b600081905092915050565b50565b6000610fab600083610f90565b9150610fb682610f9b565b600082019050919050565b6000610fcc82610f9e565b9150819050919050565b7f4275726e20455448206d6f636b2066616c6c69746f0000000000000000000000600082015250565b600061100c601583610da8565b915061101782610fd6565b602082019050919050565b6000602082019050818103600083015261103b81610fff565b9050919050565b60006060820190506110576000830186610d3c565b6110646020830185610b98565b6110716040830184610b98565b949350505050565b7f53616c646f20696e73756666696369656e746500000000000000000000000000600082015250565b60006110af601383610da8565b91506110ba82611079565b602082019050919050565b600060208201905081810360008301526110de816110a2565b9050919050565b7f54726173666572696d656e746f204554482066616c6c69746f00000000000000600082015250565b600061111b601983610da8565b9150611126826110e5565b602082019050919050565b6000602082019050818103600083015261114a8161110e565b9050919050565b7f4e487b7100000000000000000000000000000000000000000000000000000000600052601260045260246000fd5b600061118b82610b8e565b915061119683610b8e565b9250826111a6576111a5611151565b5b828204905092915050565b7f45544820696e73756666696369656e7465206e656c2077616c6c657400000000600082015250565b60006111e7601c83610da8565b91506111f2826111b1565b602082019050919050565b60006020820190508181036000830152611216816111da565b9050919050565b60006060820190506112326000830186610d3c565b61123f6020830185610d3c565b61124c6040830184610b98565b949350505050565b7f5472616e7366657220746f6b656e2066616c6c69746f00000000000000000000600082015250565b600061128a601683610da8565b915061129582611254565b602082019050919050565b600060208201905081810360008301526112b98161127d565b905091905056fea2646970667358221220b8db9048d0e5fb3f4bc0db378973edb899971b2318c254f9c605f36b850dff4664736f6c63430008180033a26469706673582212204da39bede7be3d8bb6ea26498db533598eb9c31314ad38a09e06dde58fae401b64736f6c63430008180033",
  "linkReferences": {},
  "deployedLinkReferences": {}
}