{
  "_format": "hh-sol-artifact-1",
  "contractName": "EthUsdcSwap",
  "sourceName": "contracts/EthUsdcSwap.sol",
  "abi": [
    {
      "inputs": [
        {
          "internalType": "address",
          "name": "_usdc",
          "type": "address"
        },
        {
          "internalType": "address",
          "name": "_ethUsdFeed",
          "type": "address"
        }
      ],
      "stateMutability": "nonpayable",
      "type": "constructor"
    },
    {
      "inputs": [],
      "name": "ReentrancyGuardReentrantCall",
      "type": "error"
    },
    {
      "anonymous": false,
      "inputs": [
        {
          "indexed": true,
          "internalType": "address",
          "name": "payer",
          "type": "address"
        },
        {
          "indexed": true,
          "internalType": "address",
          "name": "recipient",
          "type": "address"
        },
        {
          "indexed": false,
          "internalType": "uint256",
          "name": "ethIn",
          "type": "uint256"
        },
        {
          "indexed": false,
          "internalType": "uint256",
          "name": "usdcOut",
          "type": "uint256"
        }
      ],
      "name": "BoughtUSDC",
      "type": "event"
    },
    {
      "anonymous": false,
      "inputs": [
        {
          "indexed": true,
          "internalType": "address",
          "name": "seller",
          "type": "address"
        },
        {
          "indexed": true,
          "internalType": "address",
          "name": "recipient",
          "type": "address"
        },
        {
          "indexed": false,
          "internalType": "uint256",
          "name": "usdcIn",
          "type": "uint256"
        },
        {
          "indexed": false,
          "internalType": "uint256",
          "name": "ethOut",
          "type": "uint256"
        }
      ],
      "name": "SoldUSDC",
      "type": "event"
    },
    {
      "inputs": [],
      "name": "USDC_DECIMALS",
      "outputs": [
        {
          "internalType": "uint8",
          "name": "",
          "type": "uint8"
        }
      ],
      "stateMutability": "view",
      "type": "function"
    },
    {
      "inputs": [
        {
          "internalType": "address",
          "name": "recipient",
          "type": "address"
        }
      ],
      "name": "buyUsdc",
      "outputs": [
        {
          "internalType": "uint256",
          "name": "amountUsdc",
          "type": "uint256"
        }
      ],
      "stateMutability": "payable",
      "type": "function"
    },
    {
      "inputs": [],
      "name": "ethUsdFeed",
      "outputs": [
        {
          "internalType": "contract AggregatorV3Interface",
          "name": "",
          "type": "address"
        }
      ],
      "stateMutability": "view",
      "type": "function"
    },
    {
      "inputs": [],
      "name": "getEthUsdPrice1e8",
      "outputs": [
        {
          "internalType": "uint256",
          "name": "",
          "type": "uint256"
        }
      ],
      "stateMutability": "view",
      "type": "function"
    },
    {
      "inputs": [
        {
          "internalType": "uint256",
          "name": "ethAmountWei",
          "type": "uint256"
        }
      ],
      "name": "quoteBuyUsdc",
      "outputs": [
        {
          "internalType": "uint256",
          "name": "amountUsdc",
          "type": "uint256"
        }
      ],
      "stateMutability": "view",
      "type": "function"
    },
    {
      "inputs": [
        {
          "internalType": "uint256",
          "name": "amountUsdc",
          "type": "uint256"
        }
      ],
      "name": "quoteSellUsdc",
      "outputs": [
        {
          "internalType": "uint256",
          "name": "amountEth",
          "type": "uint256"
        }
      ],
      "stateMutability": "view",
      "type": "function"
    },
    {
      "inputs": [
        {
          "internalType": "address",
          "name": "recipient",
          "type": "address"
        },
        {
          "internalType": "uint256",
          "name": "amountUsdc",
          "type": "uint256"
        }
      ],
      "name": "sellUsdc",
      "outputs": [
        {
          "internalType": "uint256",
          "name": "amountEth",
          "type": "uint256"
        }
      ],
      "stateMutability": "nonpayable",
      "type": "function"
    },
    {
      "inputs": [],
      "name": "usdc",
      "outputs": [
        {
          "internalType": "contract IERC20",
          "name": "",
          "type": "address"
        }
      ],
      "stateMutability": "view",
      "type": "function"
    },
    {
      "stateMutability": "payable",
      "type": "receive"
    }
  ],
  "bytecode": "0x60c06040523480156200001157600080fd5b5060405162001d1e38038062001d1e8339818101604052810190620000379190620001fd565b6001600081905550600073ffffffffffffffffffffffffffffffffffffffff168273ffffffffffffffffffffffffffffffffffffffff1603620000b1576040517f08c379a0000000000000000000000000000000000000000000000000000000008152600401620000a890620002a5565b60405180910390fd5b600073ffffffffffffffffffffffffffffffffffffffff168173ffffffffffffffffffffffffffffffffffffffff160362000123576040517f08c379a00000000000000000000000000000000000000000000000000000000081526004016200011a9062000317565b60405180910390fd5b8173ffffffffffffffffffffffffffffffffffffffff1660808173ffffffffffffffffffffffffffffffffffffffff16815250508073ffffffffffffffffffffffffffffffffffffffff1660a08173ffffffffffffffffffffffffffffffffffffffff1681525050505062000339565b600080fd5b600073ffffffffffffffffffffffffffffffffffffffff82169050919050565b6000620001c58262000198565b9050919050565b620001d781620001b8565b8114620001e357600080fd5b50565b600081519050620001f781620001cc565b92915050565b6000806040838503121562000217576200021662000193565b5b60006200022785828601620001e6565b92505060206200023a85828601620001e6565b9150509250929050565b600082825260208201905092915050565b7f555344432061646472657373206973207a65726f000000000000000000000000600082015250565b60006200028d60148362000244565b91506200029a8262000255565b602082019050919050565b60006020820190508181036000830152620002c0816200027e565b9050919050565b7f466565642061646472657373206973207a65726f000000000000000000000000600082015250565b6000620002ff60148362000244565b91506200030c82620002c7565b602082019050919050565b600060208201905081810360008301526200033281620002f0565b9050919050565b60805160a05161199c62000382600039600081816108e401528181610aa80152610b820152600081816102de01528181610574015281816106a30152610780015261199c6000f3fe60806040526004361061007f5760003560e01c80638009b7bd1161004e5780638009b7bd1461014e5780639201ffd314610179578063c1419def146101b6578063f794dbe6146101e157610086565b80631ddbc3d61461008b5780633e413bee146100c85780635c76a754146100f357806373832bd71461012357610086565b3661008657005b600080fd5b34801561009757600080fd5b506100b260048036038101906100ad9190610d24565b61021e565b6040516100bf9190610d73565b60405180910390f35b3480156100d457600080fd5b506100dd610572565b6040516100ea9190610ded565b60405180910390f35b61010d60048036038101906101089190610e08565b610596565b60405161011a9190610d73565b60405180910390f35b34801561012f57600080fd5b506101386108d3565b6040516101459190610d73565b60405180910390f35b34801561015a57600080fd5b506101636108e2565b6040516101709190610e56565b60405180910390f35b34801561018557600080fd5b506101a0600480360381019061019b9190610e71565b610906565b6040516101ad9190610d73565b60405180910390f35b3480156101c257600080fd5b506101cb6109aa565b6040516101d89190610eba565b60405180910390f35b3480156101ed57600080fd5b5061020860048036038101906102039190610e71565b6109af565b6040516102159190610d73565b60405180910390f35b6000610228610a53565b600073ffffffffffffffffffffffffffffffffffffffff168373ffffffffffffffffffffffffffffffffffffffff1603610297576040517f08c379a000000000000000000000000000000000000000000000000000000000815260040161028e90610f32565b60405180910390fd5b600082116102da576040517f08c379a00000000000000000000000000000000000000000000000000000000081526004016102d190610f9e565b60405180910390fd5b60007f000000000000000000000000000000000000000000000000000000000000000073ffffffffffffffffffffffffffffffffffffffff166323b872dd3330866040518463ffffffff1660e01b815260040161033993929190610fcd565b6020604051808303816000875af1158015610358573d6000803e3d6000fd5b505050506040513d601f19601f8201168201806040525081019061037c919061103c565b9050806103be576040517f08c379a00000000000000000000000000000000000000000000000000000000081526004016103b5906110b5565b60405180910390fd5b6103c7836109af565b91506000821161040c576040517f08c379a000000000000000000000000000000000000000000000000000000000815260040161040390611121565b60405180910390fd5b8147101561044f576040517f08c379a00000000000000000000000000000000000000000000000000000000081526004016104469061118d565b60405180910390fd5b60008473ffffffffffffffffffffffffffffffffffffffff1683604051610475906111de565b60006040518083038185875af1925050503d80600081146104b2576040519150601f19603f3d011682016040523d82523d6000602084013e6104b7565b606091505b50509050806104fb576040517f08c379a00000000000000000000000000000000000000000000000000000000081526004016104f29061123f565b60405180910390fd5b8473ffffffffffffffffffffffffffffffffffffffff163373ffffffffffffffffffffffffffffffffffffffff167fb3d177370a5526bdc8c24c3e363faa1f0e0c22d0f44cc5dadd37142e6d28bc95868660405161055a92919061125f565b60405180910390a3505061056c610a99565b92915050565b7f000000000000000000000000000000000000000000000000000000000000000081565b60006105a0610a53565b600073ffffffffffffffffffffffffffffffffffffffff168273ffffffffffffffffffffffffffffffffffffffff160361060f576040517f08c379a000000000000000000000000000000000000000000000000000000000815260040161060690610f32565b60405180910390fd5b60003411610652576040517f08c379a0000000000000000000000000000000000000000000000000000000008152600401610649906112d4565b60405180910390fd5b61065b34610906565b9050600081116106a0576040517f08c379a000000000000000000000000000000000000000000000000000000000815260040161069790611340565b60405180910390fd5b807f000000000000000000000000000000000000000000000000000000000000000073ffffffffffffffffffffffffffffffffffffffff166370a08231306040518263ffffffff1660e01b81526004016106fa9190611360565b602060405180830381865afa158015610717573d6000803e3d6000fd5b505050506040513d601f19601f8201168201806040525081019061073b9190611390565b101561077c576040517f08c379a000000000000000000000000000000000000000000000000000000000815260040161077390611409565b60405180910390fd5b60007f000000000000000000000000000000000000000000000000000000000000000073ffffffffffffffffffffffffffffffffffffffff1663a9059cbb84846040518363ffffffff1660e01b81526004016107d9929190611429565b6020604051808303816000875af11580156107f8573d6000803e3d6000fd5b505050506040513d601f19601f8201168201806040525081019061081c919061103c565b90508061085e576040517f08c379a0000000000000000000000000000000000000000000000000000000008152600401610855906110b5565b60405180910390fd5b8273ffffffffffffffffffffffffffffffffffffffff163373ffffffffffffffffffffffffffffffffffffffff167f622818c33c4fe69f3dedb318526625eb899d7a79f2aa309f076bd7712e391dc534856040516108bd92919061125f565b60405180910390a3506108ce610a99565b919050565b60006108dd610aa3565b905090565b7f000000000000000000000000000000000000000000000000000000000000000081565b600080821161094a576040517f08c379a00000000000000000000000000000000000000000000000000000000081526004016109419061149e565b60405180910390fd5b6000610954610aa3565b90506000670de0b6b3a7640000828561096d91906114ed565b610977919061155e565b90506305f5e1006006600a61098c91906116c2565b8261099791906114ed565b6109a1919061155e565b92505050919050565b600681565b60008082116109f3576040517f08c379a00000000000000000000000000000000000000000000000000000000081526004016109ea90611759565b60405180910390fd5b60006109fd610aa3565b905060006006600a610a0f91906116c2565b6305f5e10085610a1f91906114ed565b610a29919061155e565b905081670de0b6b3a764000082610a4091906114ed565b610a4a919061155e565b92505050919050565b600260005403610a8f576040517f3ee5aeb500000000000000000000000000000000000000000000000000000000815260040160405180910390fd5b6002600081905550565b6001600081905550565b6000807f000000000000000000000000000000000000000000000000000000000000000073ffffffffffffffffffffffffffffffffffffffff1663feaf968c6040518163ffffffff1660e01b815260040160a060405180830381865afa158015610b11573d6000803e3d6000fd5b505050506040513d601f19601f82011682018060405250810190610b3591906117f1565b50505091505060008113610b7e576040517f08c379a0000000000000000000000000000000000000000000000000000000008152600401610b75906118b8565b60405180910390fd5b60007f000000000000000000000000000000000000000000000000000000000000000073ffffffffffffffffffffffffffffffffffffffff1663313ce5676040518163ffffffff1660e01b8152600401602060405180830381865afa158015610beb573d6000803e3d6000fd5b505050506040513d601f19601f82011682018060405250810190610c0f9190611904565b905060088160ff1603610c26578192505050610c88565b60088160ff161115610c5f57600881610c3f9190611931565b600a610c4b91906116c2565b82610c56919061155e565b92505050610c88565b806008610c6c9190611931565b600a610c7891906116c2565b82610c8391906114ed565b925050505b90565b600080fd5b600073ffffffffffffffffffffffffffffffffffffffff82169050919050565b6000610cbb82610c90565b9050919050565b610ccb81610cb0565b8114610cd657600080fd5b50565b600081359050610ce881610cc2565b92915050565b6000819050919050565b610d0181610cee565b8114610d0c57600080fd5b50565b600081359050610d1e81610cf8565b92915050565b60008060408385031215610d3b57610d3a610c8b565b5b6000610d4985828601610cd9565b9250506020610d5a85828601610d0f565b9150509250929050565b610d6d81610cee565b82525050565b6000602082019050610d886000830184610d64565b92915050565b6000819050919050565b6000610db3610dae610da984610c90565b610d8e565b610c90565b9050919050565b6000610dc582610d98565b9050919050565b6000610dd782610dba565b9050919050565b610de781610dcc565b82525050565b6000602082019050610e026000830184610dde565b92915050565b600060208284031215610e1e57610e1d610c8b565b5b6000610e2c84828501610cd9565b91505092915050565b6000610e4082610dba565b9050919050565b610e5081610e35565b82525050565b6000602082019050610e6b6000830184610e47565b92915050565b600060208284031215610e8757610e86610c8b565b5b6000610e9584828501610d0f565b91505092915050565b600060ff82169050919050565b610eb481610e9e565b82525050565b6000602082019050610ecf6000830184610eab565b92915050565b600082825260208201905092915050565b7f496e76616c696420726563697069656e74000000000000000000000000000000600082015250565b6000610f1c601183610ed5565b9150610f2782610ee6565b602082019050919050565b60006020820190508181036000830152610f4b81610f0f565b9050919050565b7f5a65726f20616d6f756e74000000000000000000000000000000000000000000600082015250565b6000610f88600b83610ed5565b9150610f9382610f52565b602082019050919050565b60006020820190508181036000830152610fb781610f7b565b9050919050565b610fc781610cb0565b82525050565b6000606082019050610fe26000830186610fbe565b610fef6020830185610fbe565b610ffc6040830184610d64565b949350505050565b60008115159050919050565b61101981611004565b811461102457600080fd5b50565b60008151905061103681611010565b92915050565b60006020828403121561105257611051610c8b565b5b600061106084828501611027565b91505092915050565b7f55534443207472616e73666572206661696c6564000000000000000000000000600082015250565b600061109f601483610ed5565b91506110aa82611069565b602082019050919050565b600060208201905081810360008301526110ce81611092565b9050919050565b7f45544820616d6f756e74206973207a65726f0000000000000000000000000000600082015250565b600061110b601283610ed5565b9150611116826110d5565b602082019050919050565b6000602082019050818103600083015261113a816110fe565b9050919050565b7f4e6f7420656e6f75676820455448206c69717569646974790000000000000000600082015250565b6000611177601883610ed5565b915061118282611141565b602082019050919050565b600060208201905081810360008301526111a68161116a565b9050919050565b600081905092915050565b50565b60006111c86000836111ad565b91506111d3826111b8565b600082019050919050565b60006111e9826111bb565b9150819050919050565b7f455448207472616e73666572206661696c656400000000000000000000000000600082015250565b6000611229601383610ed5565b9150611234826111f3565b602082019050919050565b600060208201905081810360008301526112588161121c565b9050919050565b60006040820190506112746000830185610d64565b6112816020830184610d64565b9392505050565b7f4e6f204554482073656e74000000000000000000000000000000000000000000600082015250565b60006112be600b83610ed5565b91506112c982611288565b602082019050919050565b600060208201905081810360008301526112ed816112b1565b9050919050565b7f5553444320616d6f756e74206973207a65726f00000000000000000000000000600082015250565b600061132a601383610ed5565b9150611335826112f4565b602082019050919050565b600060208201905081810360008301526113598161131d565b9050919050565b60006020820190506113756000830184610fbe565b92915050565b60008151905061138a81610cf8565b92915050565b6000602082840312156113a6576113a5610c8b565b5b60006113b48482850161137b565b91505092915050565b7f4e6f7420656e6f7567682055534443206c697175696469747900000000000000600082015250565b60006113f3601983610ed5565b91506113fe826113bd565b602082019050919050565b60006020820190508181036000830152611422816113e6565b9050919050565b600060408201905061143e6000830185610fbe565b61144b6020830184610d64565b9392505050565b7f5a65726f20455448000000000000000000000000000000000000000000000000600082015250565b6000611488600883610ed5565b915061149382611452565b602082019050919050565b600060208201905081810360008301526114b78161147b565b9050919050565b7f4e487b7100000000000000000000000000000000000000000000000000000000600052601160045260246000fd5b60006114f882610cee565b915061150383610cee565b925082820261151181610cee565b91508282048414831517611528576115276114be565b5b5092915050565b7f4e487b7100000000000000000000000000000000000000000000000000000000600052601260045260246000fd5b600061156982610cee565b915061157483610cee565b9250826115845761158361152f565b5b828204905092915050565b60008160011c9050919050565b6000808291508390505b60018511156115e6578086048111156115c2576115c16114be565b5b60018516156115d15780820291505b80810290506115df8561158f565b94506115a6565b94509492505050565b6000826115ff57600190506116bb565b8161160d57600090506116bb565b8160018114611623576002811461162d5761165c565b60019150506116bb565b60ff84111561163f5761163e6114be565b5b8360020a915084821115611656576116556114be565b5b506116bb565b5060208310610133831016604e8410600b84101617156116915782820a90508381111561168c5761168b6114be565b5b6116bb565b61169e848484600161159c565b925090508184048111156116b5576116b46114be565b5b81810290505b9392505050565b60006116cd82610cee565b91506116d883610e9e565b92506117057fffffffffffffffffffffffffffffffffffffffffffffffffffffffffffffffff84846115ef565b905092915050565b7f5a65726f20555344430000000000000000000000000000000000000000000000600082015250565b6000611743600983610ed5565b915061174e8261170d565b602082019050919050565b6000602082019050818103600083015261177281611736565b9050919050565b600069ffffffffffffffffffff82169050919050565b61179881611779565b81146117a357600080fd5b50565b6000815190506117b58161178f565b92915050565b6000819050919050565b6117ce816117bb565b81146117d957600080fd5b50565b6000815190506117eb816117c5565b92915050565b600080600080600060a0868803121561180d5761180c610c8b565b5b600061181b888289016117a6565b955050602061182c888289016117dc565b945050604061183d8882890161137b565b935050606061184e8882890161137b565b925050608061185f888289016117a6565b9150509295509295909350565b7f496e76616c696420707269636500000000000000000000000000000000000000600082015250565b60006118a2600d83610ed5565b91506118ad8261186c565b602082019050919050565b600060208201905081810360008301526118d181611895565b9050919050565b6118e181610e9e565b81146118ec57600080fd5b50565b6000815190506118fe816118d8565b92915050565b60006020828403121561191a57611919610c8b565b5b6000611928848285016118ef565b91505092915050565b600061193c82610e9e565b915061194783610e9e565b9250828203905060ff8111156119605761195f6114be565b5b9291505056fea2646970667358221220f6c8f1bbf7b20b6376a899f3139a418bcf3a2b220e6edd151dad44a8a511a46664736f6c63430008180033",
  "linkReferences": {},
  "deployedLinkReferences": {}
}