{
  "_format": "hh-sol-artifact-1",
  "contractName": "EthUsdcSwap",
  "sourceName": "contracts/EthUsdcSwap.sol",
  "abi": [
    {
      "inputs": [
        {
          "internalType": "address",
          "name": "_usdc",
          "type": "address"
        },
        {
          "internalType": "address",
          "name": "_ethUsdFeed",
          "type": "address"
        }
      ],
      "stateMutability": "nonpayable",
      "type": "constructor"
    },
    {
      "inputs": [],
      "name": "ReentrancyGuardReentrantCall",
      "type": "error"
    },
    {
      "inputs": [],
      "name": "USDC_DECIMALS",
      "outputs": [
        {
          "internalType": "uint8",
          "name": "",
          "type": "uint8"
        }
      ],
      "stateMutability": "view",
      "type": "function"
    },
    {
      "inputs": [
        {
          "internalType": "address",
          "name": "recipient",
          "type": "address"
        }
      ],
      "name": "buyUsdc",
      "outputs": [
        {
          "internalType": "uint256",
          "name": "amountUsdc",
          "type": "uint256"
        }
      ],
      "stateMutability": "payable",
      "type": "function"
    },
    {
      "inputs": [],
      "name": "ethUsdFeed",
      "outputs": [
        {
          "internalType": "contract AggregatorV3Interface",
          "name": "",
          "type": "address"
        }
      ],
      "stateMutability": "view",
      "type": "function"
    },
    {
      "inputs": [
        {
          "internalType": "address",
          "name": "recipient",
          "type": "address"
        },
        {
          "internalType": "uint256",
          "name": "amountUsdc",
          "type": "uint256"
        }
      ],
      "name": "sellUsdc",
      "outputs": [
        {
          "internalType": "uint256",
          "name": "amountEth",
          "type": "uint256"
        }
      ],
      "stateMutability": "nonpayable",
      "type": "function"
    },
    {
      "inputs": [],
      "name": "usdc",
      "outputs": [
        {
          "internalType": "contract IERC20",
          "name": "",
          "type": "address"
        }
      ],
      "stateMutability": "view",
      "type": "function"
    },
    {
      "stateMutability": "payable",
      "type": "receive"
    }
  ],
  "bytecode": "0x60c06040523480156200001157600080fd5b5060405162001995380380620019958339818101604052810190620000379190620001fd565b6001600081905550600073ffffffffffffffffffffffffffffffffffffffff168273ffffffffffffffffffffffffffffffffffffffff1603620000b1576040517f08c379a0000000000000000000000000000000000000000000000000000000008152600401620000a890620002a5565b60405180910390fd5b600073ffffffffffffffffffffffffffffffffffffffff168173ffffffffffffffffffffffffffffffffffffffff160362000123576040517f08c379a00000000000000000000000000000000000000000000000000000000081526004016200011a9062000317565b60405180910390fd5b8173ffffffffffffffffffffffffffffffffffffffff1660808173ffffffffffffffffffffffffffffffffffffffff16815250508073ffffffffffffffffffffffffffffffffffffffff1660a08173ffffffffffffffffffffffffffffffffffffffff1681525050505062000339565b600080fd5b600073ffffffffffffffffffffffffffffffffffffffff82169050919050565b6000620001c58262000198565b9050919050565b620001d781620001b8565b8114620001e357600080fd5b50565b600081519050620001f781620001cc565b92915050565b6000806040838503121562000217576200021662000193565b5b60006200022785828601620001e6565b92505060206200023a85828601620001e6565b9150509250929050565b600082825260208201905092915050565b7f555344432061646472657373206973207a65726f000000000000000000000000600082015250565b60006200028d60148362000244565b91506200029a8262000255565b602082019050919050565b60006020820190508181036000830152620002c0816200027e565b9050919050565b7f466565642061646472657373206973207a65726f000000000000000000000000600082015250565b6000620002ff60148362000244565b91506200030c82620002c7565b602082019050919050565b600060208201905081810360008301526200033281620002f0565b9050919050565b60805160a05161161362000382600039600081816107d101528181610843015261091d015260008181610208015281816104870152818161060401526106e101526116136000f3fe60806040526004361061004e5760003560e01c80631ddbc3d61461005a5780633e413bee146100975780635c76a754146100c25780638009b7bd146100f2578063c1419def1461011d57610055565b3661005557005b600080fd5b34801561006657600080fd5b50610081600480360381019061007c9190610ac9565b610148565b60405161008e9190610b18565b60405180910390f35b3480156100a357600080fd5b506100ac610485565b6040516100b99190610b92565b60405180910390f35b6100dc60048036038101906100d79190610bad565b6104a9565b6040516100e99190610b18565b60405180910390f35b3480156100fe57600080fd5b506101076107cf565b6040516101149190610bfb565b60405180910390f35b34801561012957600080fd5b506101326107f3565b60405161013f9190610c32565b60405180910390f35b60006101526107f8565b600073ffffffffffffffffffffffffffffffffffffffff168373ffffffffffffffffffffffffffffffffffffffff16036101c1576040517f08c379a00000000000000000000000000000000000000000000000000000000081526004016101b890610caa565b60405180910390fd5b60008211610204576040517f08c379a00000000000000000000000000000000000000000000000000000000081526004016101fb90610d16565b60405180910390fd5b60007f000000000000000000000000000000000000000000000000000000000000000073ffffffffffffffffffffffffffffffffffffffff166323b872dd3330866040518463ffffffff1660e01b815260040161026393929190610d45565b6020604051808303816000875af1158015610282573d6000803e3d6000fd5b505050506040513d601f19601f820116820180604052508101906102a69190610db4565b9050806102e8576040517f08c379a00000000000000000000000000000000000000000000000000000000081526004016102df90610e2d565b60405180910390fd5b60006102f261083e565b905060006006600a6103049190610faf565b6305f5e100866103149190610ffa565b61031e919061106b565b905081670de0b6b3a7640000826103359190610ffa565b61033f919061106b565b935060008411610384576040517f08c379a000000000000000000000000000000000000000000000000000000000815260040161037b906110e8565b60405180910390fd5b834710156103c7576040517f08c379a00000000000000000000000000000000000000000000000000000000081526004016103be90611154565b60405180910390fd5b60008673ffffffffffffffffffffffffffffffffffffffff16856040516103ed906111a5565b60006040518083038185875af1925050503d806000811461042a576040519150601f19603f3d011682016040523d82523d6000602084013e61042f565b606091505b5050905080610473576040517f08c379a000000000000000000000000000000000000000000000000000000000815260040161046a90611206565b60405180910390fd5b5050505061047f610a26565b92915050565b7f000000000000000000000000000000000000000000000000000000000000000081565b60006104b36107f8565b600073ffffffffffffffffffffffffffffffffffffffff168273ffffffffffffffffffffffffffffffffffffffff1603610522576040517f08c379a000000000000000000000000000000000000000000000000000000000815260040161051990610caa565b60405180910390fd5b60003411610565576040517f08c379a000000000000000000000000000000000000000000000000000000000815260040161055c90611272565b60405180910390fd5b600061056f61083e565b90506000670de0b6b3a764000082346105889190610ffa565b610592919061106b565b90506305f5e1006006600a6105a79190610faf565b826105b29190610ffa565b6105bc919061106b565b925060008311610601576040517f08c379a00000000000000000000000000000000000000000000000000000000081526004016105f8906112de565b60405180910390fd5b827f000000000000000000000000000000000000000000000000000000000000000073ffffffffffffffffffffffffffffffffffffffff166370a08231306040518263ffffffff1660e01b815260040161065b91906112fe565b602060405180830381865afa158015610678573d6000803e3d6000fd5b505050506040513d601f19601f8201168201806040525081019061069c919061132e565b10156106dd576040517f08c379a00000000000000000000000000000000000000000000000000000000081526004016106d4906113a7565b60405180910390fd5b60007f000000000000000000000000000000000000000000000000000000000000000073ffffffffffffffffffffffffffffffffffffffff1663a9059cbb86866040518363ffffffff1660e01b815260040161073a9291906113c7565b6020604051808303816000875af1158015610759573d6000803e3d6000fd5b505050506040513d601f19601f8201168201806040525081019061077d9190610db4565b9050806107bf576040517f08c379a00000000000000000000000000000000000000000000000000000000081526004016107b690610e2d565b60405180910390fd5b5050506107ca610a26565b919050565b7f000000000000000000000000000000000000000000000000000000000000000081565b600681565b600260005403610834576040517f3ee5aeb500000000000000000000000000000000000000000000000000000000815260040160405180910390fd5b6002600081905550565b6000807f000000000000000000000000000000000000000000000000000000000000000073ffffffffffffffffffffffffffffffffffffffff1663feaf968c6040518163ffffffff1660e01b815260040160a060405180830381865afa1580156108ac573d6000803e3d6000fd5b505050506040513d601f19601f820116820180604052508101906108d09190611468565b50505091505060008113610919576040517f08c379a00000000000000000000000000000000000000000000000000000000081526004016109109061152f565b60405180910390fd5b60007f000000000000000000000000000000000000000000000000000000000000000073ffffffffffffffffffffffffffffffffffffffff1663313ce5676040518163ffffffff1660e01b8152600401602060405180830381865afa158015610986573d6000803e3d6000fd5b505050506040513d601f19601f820116820180604052508101906109aa919061157b565b905060088160ff16036109c1578192505050610a23565b60088160ff1611156109fa576008816109da91906115a8565b600a6109e69190610faf565b826109f1919061106b565b92505050610a23565b806008610a0791906115a8565b600a610a139190610faf565b82610a1e9190610ffa565b925050505b90565b6001600081905550565b600080fd5b600073ffffffffffffffffffffffffffffffffffffffff82169050919050565b6000610a6082610a35565b9050919050565b610a7081610a55565b8114610a7b57600080fd5b50565b600081359050610a8d81610a67565b92915050565b6000819050919050565b610aa681610a93565b8114610ab157600080fd5b50565b600081359050610ac381610a9d565b92915050565b60008060408385031215610ae057610adf610a30565b5b6000610aee85828601610a7e565b9250506020610aff85828601610ab4565b9150509250929050565b610b1281610a93565b82525050565b6000602082019050610b2d6000830184610b09565b92915050565b6000819050919050565b6000610b58610b53610b4e84610a35565b610b33565b610a35565b9050919050565b6000610b6a82610b3d565b9050919050565b6000610b7c82610b5f565b9050919050565b610b8c81610b71565b82525050565b6000602082019050610ba76000830184610b83565b92915050565b600060208284031215610bc357610bc2610a30565b5b6000610bd184828501610a7e565b91505092915050565b6000610be582610b5f565b9050919050565b610bf581610bda565b82525050565b6000602082019050610c106000830184610bec565b92915050565b600060ff82169050919050565b610c2c81610c16565b82525050565b6000602082019050610c476000830184610c23565b92915050565b600082825260208201905092915050565b7f496e76616c696420726563697069656e74000000000000000000000000000000600082015250565b6000610c94601183610c4d565b9150610c9f82610c5e565b602082019050919050565b60006020820190508181036000830152610cc381610c87565b9050919050565b7f5a65726f20616d6f756e74000000000000000000000000000000000000000000600082015250565b6000610d00600b83610c4d565b9150610d0b82610cca565b602082019050919050565b60006020820190508181036000830152610d2f81610cf3565b9050919050565b610d3f81610a55565b82525050565b6000606082019050610d5a6000830186610d36565b610d676020830185610d36565b610d746040830184610b09565b949350505050565b60008115159050919050565b610d9181610d7c565b8114610d9c57600080fd5b50565b600081519050610dae81610d88565b92915050565b600060208284031215610dca57610dc9610a30565b5b6000610dd884828501610d9f565b91505092915050565b7f55534443207472616e73666572206661696c6564000000000000000000000000600082015250565b6000610e17601483610c4d565b9150610e2282610de1565b602082019050919050565b60006020820190508181036000830152610e4681610e0a565b9050919050565b7f4e487b7100000000000000000000000000000000000000000000000000000000600052601160045260246000fd5b60008160011c9050919050565b6000808291508390505b6001851115610ed357808604811115610eaf57610eae610e4d565b5b6001851615610ebe5780820291505b8081029050610ecc85610e7c565b9450610e93565b94509492505050565b600082610eec5760019050610fa8565b81610efa5760009050610fa8565b8160018114610f105760028114610f1a57610f49565b6001915050610fa8565b60ff841115610f2c57610f2b610e4d565b5b8360020a915084821115610f4357610f42610e4d565b5b50610fa8565b5060208310610133831016604e8410600b8410161715610f7e5782820a905083811115610f7957610f78610e4d565b5b610fa8565b610f8b8484846001610e89565b92509050818404811115610fa257610fa1610e4d565b5b81810290505b9392505050565b6000610fba82610a93565b9150610fc583610c16565b9250610ff27fffffffffffffffffffffffffffffffffffffffffffffffffffffffffffffffff8484610edc565b905092915050565b600061100582610a93565b915061101083610a93565b925082820261101e81610a93565b9150828204841483151761103557611034610e4d565b5b5092915050565b7f4e487b7100000000000000000000000000000000000000000000000000000000600052601260045260246000fd5b600061107682610a93565b915061108183610a93565b9250826110915761109061103c565b5b828204905092915050565b7f45544820616d6f756e74206973207a65726f0000000000000000000000000000600082015250565b60006110d2601283610c4d565b91506110dd8261109c565b602082019050919050565b60006020820190508181036000830152611101816110c5565b9050919050565b7f4e6f7420656e6f75676820455448206c69717569646974790000000000000000600082015250565b600061113e601883610c4d565b915061114982611108565b602082019050919050565b6000602082019050818103600083015261116d81611131565b9050919050565b600081905092915050565b50565b600061118f600083611174565b915061119a8261117f565b600082019050919050565b60006111b082611182565b9150819050919050565b7f455448207472616e73666572206661696c656400000000000000000000000000600082015250565b60006111f0601383610c4d565b91506111fb826111ba565b602082019050919050565b6000602082019050818103600083015261121f816111e3565b9050919050565b7f4e6f204554482073656e74000000000000000000000000000000000000000000600082015250565b600061125c600b83610c4d565b915061126782611226565b602082019050919050565b6000602082019050818103600083015261128b8161124f565b9050919050565b7f5553444320616d6f756e74206973207a65726f00000000000000000000000000600082015250565b60006112c8601383610c4d565b91506112d382611292565b602082019050919050565b600060208201905081810360008301526112f7816112bb565b9050919050565b60006020820190506113136000830184610d36565b92915050565b60008151905061132881610a9d565b92915050565b60006020828403121561134457611343610a30565b5b600061135284828501611319565b91505092915050565b7f4e6f7420656e6f7567682055534443206c697175696469747900000000000000600082015250565b6000611391601983610c4d565b915061139c8261135b565b602082019050919050565b600060208201905081810360008301526113c081611384565b9050919050565b60006040820190506113dc6000830185610d36565b6113e96020830184610b09565b9392505050565b600069ffffffffffffffffffff82169050919050565b61140f816113f0565b811461141a57600080fd5b50565b60008151905061142c81611406565b92915050565b6000819050919050565b61144581611432565b811461145057600080fd5b50565b6000815190506114628161143c565b92915050565b600080600080600060a0868803121561148457611483610a30565b5b60006114928882890161141d565b95505060206114a388828901611453565b94505060406114b488828901611319565b93505060606114c588828901611319565b92505060806114d68882890161141d565b9150509295509295909350565b7f496e76616c696420707269636500000000000000000000000000000000000000600082015250565b6000611519600d83610c4d565b9150611524826114e3565b602082019050919050565b600060208201905081810360008301526115488161150c565b9050919050565b61155881610c16565b811461156357600080fd5b50565b6000815190506115758161154f565b92915050565b60006020828403121561159157611590610a30565b5b600061159f84828501611566565b91505092915050565b60006115b382610c16565b91506115be83610c16565b9250828203905060ff8111156115d7576115d6610e4d565b5b9291505056fea2646970667358221220082e62f4837543580155114424681830b9aec67baefcf013bf072bfc337d8d1c64736f6c63430008180033",
  "linkReferences": {},
  "deployedLinkReferences": {}
}