{
  "_format": "hh-sol-artifact-1",
  "contractName": "MockV3Aggregator",
  "sourceName": "contracts/MockV3Aggregator.sol",
  "abi": [
    {
      "inputs": [
        {
          "internalType": "uint8",
          "name": "_decimals",
          "type": "uint8"
        },
        {
          "internalType": "int256",
          "name": "_initialAnswer",
          "type": "int256"
        }
      ],
      "stateMutability": "nonpayable",
      "type": "constructor"
    },
    {
      "inputs": [],
      "name": "decimals",
      "outputs": [
        {
          "internalType": "uint8",
          "name": "",
          "type": "uint8"
        }
      ],
      "stateMutability": "view",
      "type": "function"
    },
    {
      "inputs": [],
      "name": "getDecimals",
      "outputs": [
        {
          "internalType": "uint8",
          "name": "",
          "type": "uint8"
        }
      ],
      "stateMutability": "view",
      "type": "function"
    },
    {
      "inputs": [],
      "name": "latestAnswer",
      "outputs": [
        {
          "internalType": "int256",
          "name": "",
          "type": "int256"
        }
      ],
      "stateMutability": "view",
      "type": "function"
    },
    {
      "inputs": [],
      "name": "latestRoundData",
      "outputs": [
        {
          "internalType": "uint80",
          "name": "roundId",
          "type": "uint80"
        },
        {
          "internalType": "int256",
          "name": "answer",
          "type": "int256"
        },
        {
          "internalType": "uint256",
          "name": "startedAt",
          "type": "uint256"
        },
        {
          "internalType": "uint256",
          "name": "updatedAt",
          "type": "uint256"
        },
        {
          "internalType": "uint80",
          "name": "answeredInRound",
          "type": "uint80"
        }
      ],
      "stateMutability": "view",
      "type": "function"
    },
    {
      "inputs": [
        {
          "internalType": "int256",
          "name": "_answer",
          "type": "int256"
        }
      ],
      "name": "updateAnswer",
      "outputs": [],
      "stateMutability": "nonpayable",
      "type": "function"
    }
  ],
  "bytecode": "0x608060405234801561001057600080fd5b506040516103fa3803806103fa833981810160405281019061003291906100ce565b816000806101000a81548160ff021916908360ff16021790555080600181905550505061010e565b600080fd5b600060ff82169050919050565b6100758161005f565b811461008057600080fd5b50565b6000815190506100928161006c565b92915050565b6000819050919050565b6100ab81610098565b81146100b657600080fd5b50565b6000815190506100c8816100a2565b92915050565b600080604083850312156100e5576100e461005a565b5b60006100f385828601610083565b9250506020610104858286016100b9565b9150509250929050565b6102dd8061011d6000396000f3fe608060405234801561001057600080fd5b50600436106100575760003560e01c8063313ce5671461005c57806350d25bcd1461007a578063a87a20ce14610098578063f0141d84146100b4578063feaf968c146100d2575b600080fd5b6100646100f4565b6040516100719190610169565b60405180910390f35b610082610105565b60405161008f919061019d565b60405180910390f35b6100b260048036038101906100ad91906101e9565b61010b565b005b6100bc610115565b6040516100c99190610169565b60405180910390f35b6100da61012b565b6040516100eb959493929190610254565b60405180910390f35b60008054906101000a900460ff1681565b60015481565b8060018190555050565b60008060009054906101000a900460ff16905090565b6000806000806000806001546000426000945094509450945094509091929394565b600060ff82169050919050565b6101638161014d565b82525050565b600060208201905061017e600083018461015a565b92915050565b6000819050919050565b61019781610184565b82525050565b60006020820190506101b2600083018461018e565b92915050565b600080fd5b6101c681610184565b81146101d157600080fd5b50565b6000813590506101e3816101bd565b92915050565b6000602082840312156101ff576101fe6101b8565b5b600061020d848285016101d4565b91505092915050565b600069ffffffffffffffffffff82169050919050565b61023581610216565b82525050565b6000819050919050565b61024e8161023b565b82525050565b600060a082019050610269600083018861022c565b610276602083018761018e565b6102836040830186610245565b6102906060830185610245565b61029d608083018461022c565b969550505050505056fea26469706673582212205b01222418de0b2fe603c1e0f82df2ec801ee8a917072661adce09070401de1864736f6c63430008180033",
  "linkReferences": {},
  "deployedLinkReferences": {}
}