{
  "_format": "hh-sol-artifact-1",
  "contractName": "MockV3Aggregator",
  "sourceName": "contracts/MockV3Aggregator.sol",
  "abi": [
    {
      "inputs": [
        {
          "internalType": "uint8",
          "name": "decimals_",
          "type": "uint8"
        },
        {
          "internalType": "int256",
          "name": "initialAnswer_",
          "type": "int256"
        }
      ],
      "stateMutability": "nonpayable",
      "type": "constructor"
    },
    {
      "inputs": [],
      "name": "decimals",
      "outputs": [
        {
          "internalType": "uint8",
          "name": "",
          "type": "uint8"
        }
      ],
      "stateMutability": "view",
      "type": "function"
    },
    {
      "inputs": [],
      "name": "latestRoundData",
      "outputs": [
        {
          "internalType": "uint80",
          "name": "roundId",
          "type": "uint80"
        },
        {
          "internalType": "int256",
          "name": "answer",
          "type": "int256"
        },
        {
          "internalType": "uint256",
          "name": "startedAt",
          "type": "uint256"
        },
        {
          "internalType": "uint256",
          "name": "updatedAt",
          "type": "uint256"
        },
        {
          "internalType": "uint80",
          "name": "answeredInRound",
          "type": "uint80"
        }
      ],
      "stateMutability": "view",
      "type": "function"
    },
    {
      "inputs": [
        {
          "internalType": "int256",
          "name": "answer_",
          "type": "int256"
        }
      ],
      "name": "updateAnswer",
      "outputs": [],
      "stateMutability": "nonpayable",
      "type": "function"
    }
  ],
  "bytecode": "0x608060405234801561001057600080fd5b50604051610376380380610376833981810160405281019061003291906100ce565b816000806101000a81548160ff021916908360ff16021790555080600181905550505061010e565b600080fd5b600060ff82169050919050565b6100758161005f565b811461008057600080fd5b50565b6000815190506100928161006c565b92915050565b6000819050919050565b6100ab81610098565b81146100b657600080fd5b50565b6000815190506100c8816100a2565b92915050565b600080604083850312156100e5576100e461005a565b5b60006100f385828601610083565b9250506020610104858286016100b9565b9150509250929050565b6102598061011d6000396000f3fe608060405234801561001057600080fd5b50600436106100415760003560e01c8063313ce56714610046578063a87a20ce14610064578063feaf968c14610080575b600080fd5b61004e6100a2565b60405161005b9190610100565b60405180910390f35b61007e60048036038101906100799190610156565b6100b8565b005b6100886100c2565b6040516100999594939291906101d0565b60405180910390f35b60008060009054906101000a900460ff16905090565b8060018190555050565b6000806000806000806001546000426000945094509450945094509091929394565b600060ff82169050919050565b6100fa816100e4565b82525050565b600060208201905061011560008301846100f1565b92915050565b600080fd5b6000819050919050565b61013381610120565b811461013e57600080fd5b50565b6000813590506101508161012a565b92915050565b60006020828403121561016c5761016b61011b565b5b600061017a84828501610141565b91505092915050565b600069ffffffffffffffffffff82169050919050565b6101a281610183565b82525050565b6101b181610120565b82525050565b6000819050919050565b6101ca816101b7565b82525050565b600060a0820190506101e56000830188610199565b6101f260208301876101a8565b6101ff60408301866101c1565b61020c60608301856101c1565b6102196080830184610199565b969550505050505056fea26469706673582212201b3adce87ebe680e02f5653c61eb0dc5aade8ffb8c1eeab9fc9e811f3c2ce34864736f6c63430008180033",
  "linkReferences": {},
  "deployedLinkReferences": {}
}