{
  "_format": "hh-sol-artifact-1",
  "contractName": "OraclePrice",
  "sourceName": "contracts/OraclePrice.sol",
  "abi": [
    {
      "inputs": [
        {
          "internalType": "address",
          "name": "mockFeed",
          "type": "address"
        }
      ],
      "stateMutability": "nonpayable",
      "type": "constructor"
    },
    {
      "inputs": [],
      "name": "getDecimals",
      "outputs": [
        {
          "internalType": "uint8",
          "name": "",
          "type": "uint8"
        }
      ],
      "stateMutability": "view",
      "type": "function"
    },
    {
      "inputs": [],
      "name": "getLatestPrice",
      "outputs": [
        {
          "internalType": "int256",
          "name": "",
          "type": "int256"
        }
      ],
      "stateMutability": "view",
      "type": "function"
    },
    {
      "inputs": [],
      "name": "priceFeed",
      "outputs": [
        {
          "internalType": "contract AggregatorV3Interface",
          "name": "",
          "type": "address"
        }
      ],
      "stateMutability": "view",
      "type": "function"
    },
    {
      "inputs": [
        {
          "internalType": "address",
          "name": "_feed",
          "type": "address"
        }
      ],
      "name": "setPriceFeed",
      "outputs": [],
      "stateMutability": "nonpayable",
      "type": "function"
    }
  ],
  "bytecode": "0x608060405234801561001057600080fd5b506040516106b03803806106b0833981810160405281019061003291906100ed565b6100418161004760201b60201c565b5061011a565b806000806101000a81548173ffffffffffffffffffffffffffffffffffffffff021916908373ffffffffffffffffffffffffffffffffffffffff16021790555050565b600080fd5b600073ffffffffffffffffffffffffffffffffffffffff82169050919050565b60006100ba8261008f565b9050919050565b6100ca816100af565b81146100d557600080fd5b50565b6000815190506100e7816100c1565b92915050565b6000602082840312156101035761010261008a565b5b6000610111848285016100d8565b91505092915050565b610587806101296000396000f3fe608060405234801561001057600080fd5b506004361061004c5760003560e01c8063724e78da14610051578063741bef1a1461006d5780638e15f4731461008b578063f0141d84146100a9575b600080fd5b61006b600480360381019061006691906102c7565b6100c7565b005b61007561010a565b6040516100829190610353565b60405180910390f35b61009361012e565b6040516100a09190610387565b60405180910390f35b6100b16101cd565b6040516100be91906103be565b60405180910390f35b806000806101000a81548173ffffffffffffffffffffffffffffffffffffffff021916908373ffffffffffffffffffffffffffffffffffffffff16021790555050565b60008054906101000a900473ffffffffffffffffffffffffffffffffffffffff1681565b60008060008054906101000a900473ffffffffffffffffffffffffffffffffffffffff1673ffffffffffffffffffffffffffffffffffffffff1663feaf968c6040518163ffffffff1660e01b815260040160a060405180830381865afa15801561019c573d6000803e3d6000fd5b505050506040513d601f19601f820116820180604052508101906101c0919061047d565b5050509150508091505090565b60008060009054906101000a900473ffffffffffffffffffffffffffffffffffffffff1673ffffffffffffffffffffffffffffffffffffffff1663313ce5676040518163ffffffff1660e01b8152600401602060405180830381865afa15801561023b573d6000803e3d6000fd5b505050506040513d601f19601f8201168201806040525081019061025f9190610524565b905090565b600080fd5b600073ffffffffffffffffffffffffffffffffffffffff82169050919050565b600061029482610269565b9050919050565b6102a481610289565b81146102af57600080fd5b50565b6000813590506102c18161029b565b92915050565b6000602082840312156102dd576102dc610264565b5b60006102eb848285016102b2565b91505092915050565b6000819050919050565b600061031961031461030f84610269565b6102f4565b610269565b9050919050565b600061032b826102fe565b9050919050565b600061033d82610320565b9050919050565b61034d81610332565b82525050565b60006020820190506103686000830184610344565b92915050565b6000819050919050565b6103818161036e565b82525050565b600060208201905061039c6000830184610378565b92915050565b600060ff82169050919050565b6103b8816103a2565b82525050565b60006020820190506103d360008301846103af565b92915050565b600069ffffffffffffffffffff82169050919050565b6103f8816103d9565b811461040357600080fd5b50565b600081519050610415816103ef565b92915050565b6104248161036e565b811461042f57600080fd5b50565b6000815190506104418161041b565b92915050565b6000819050919050565b61045a81610447565b811461046557600080fd5b50565b60008151905061047781610451565b92915050565b600080600080600060a0868803121561049957610498610264565b5b60006104a788828901610406565b95505060206104b888828901610432565b94505060406104c988828901610468565b93505060606104da88828901610468565b92505060806104eb88828901610406565b9150509295509295909350565b610501816103a2565b811461050c57600080fd5b50565b60008151905061051e816104f8565b92915050565b60006020828403121561053a57610539610264565b5b60006105488482850161050f565b9150509291505056fea26469706673582212203497c0b08db4171b670bde1381b0e1fcb4e825a445d411d97f4195ee2a18c05964736f6c63430008180033",
  "linkReferences": {},
  "deployedLinkReferences": {}
}