{
  "_format": "hh-sol-artifact-1",
  "contractName": "PriceConsumerV3",
  "sourceName": "contracts/PriceConsumerV3.sol",
  "abi": [
    {
      "inputs": [],
      "stateMutability": "nonpayable",
      "type": "constructor"
    },
    {
      "inputs": [
        {
          "internalType": "bytes32",
          "name": "",
          "type": "bytes32"
        }
      ],
      "name": "feeds",
      "outputs": [
        {
          "internalType": "contract AggregatorV3Interface",
          "name": "",
          "type": "address"
        }
      ],
      "stateMutability": "view",
      "type": "function"
    },
    {
      "inputs": [
        {
          "internalType": "string",
          "name": "symbol",
          "type": "string"
        }
      ],
      "name": "getPrice",
      "outputs": [
        {
          "internalType": "int256",
          "name": "price",
          "type": "int256"
        },
        {
          "internalType": "uint8",
          "name": "decimals",
          "type": "uint8"
        }
      ],
      "stateMutability": "view",
      "type": "function"
    },
    {
      "inputs": [],
      "name": "owner",
      "outputs": [
        {
          "internalType": "address",
          "name": "",
          "type": "address"
        }
      ],
      "stateMutability": "view",
      "type": "function"
    },
    {
      "inputs": [
        {
          "internalType": "string",
          "name": "symbol",
          "type": "string"
        },
        {
          "internalType": "address",
          "name": "feed",
          "type": "address"
        }
      ],
      "name": "setFeed",
      "outputs": [],
      "stateMutability": "nonpayable",
      "type": "function"
    }
  ],
  "bytecode": "0x608060405234801561001057600080fd5b5033600160006101000a81548173ffffffffffffffffffffffffffffffffffffffff021916908373ffffffffffffffffffffffffffffffffffffffff160217905550610a2c806100616000396000f3fe608060405234801561001057600080fd5b506004361061004c5760003560e01c80630c607acf14610051578063524f38891461006d5780638da5cb5b1461009e578063e90f1a43146100bc575b600080fd5b61006b6004803603810190610066919061058b565b6100ec565b005b610087600480360381019061008291906105e7565b6101d8565b604051610095929190610665565b60405180910390f35b6100a661037a565b6040516100b3919061069d565b60405180910390f35b6100d660048036038101906100d191906106ee565b6103a0565b6040516100e3919061077a565b60405180910390f35b600160009054906101000a900473ffffffffffffffffffffffffffffffffffffffff1673ffffffffffffffffffffffffffffffffffffffff163373ffffffffffffffffffffffffffffffffffffffff161461017c576040517f08c379a0000000000000000000000000000000000000000000000000000000008152600401610173906107f2565b60405180910390fd5b806000808480519060200120815260200190815260200160002060006101000a81548173ffffffffffffffffffffffffffffffffffffffff021916908373ffffffffffffffffffffffffffffffffffffffff1602179055505050565b60008060008060008580519060200120815260200190815260200160002060009054906101000a900473ffffffffffffffffffffffffffffffffffffffff169050600073ffffffffffffffffffffffffffffffffffffffff168173ffffffffffffffffffffffffffffffffffffffff1603610288576040517f08c379a000000000000000000000000000000000000000000000000000000000815260040161027f9061085e565b60405180910390fd5b60008173ffffffffffffffffffffffffffffffffffffffff1663feaf968c6040518163ffffffff1660e01b815260040160a060405180830381865afa1580156102d5573d6000803e3d6000fd5b505050506040513d601f19601f820116820180604052508101906102f99190610922565b5050509150508173ffffffffffffffffffffffffffffffffffffffff1663313ce5676040518163ffffffff1660e01b8152600401602060405180830381865afa15801561034a573d6000803e3d6000fd5b505050506040513d601f19601f8201168201806040525081019061036e91906109c9565b92508093505050915091565b600160009054906101000a900473ffffffffffffffffffffffffffffffffffffffff1681565b60006020528060005260406000206000915054906101000a900473ffffffffffffffffffffffffffffffffffffffff1681565b6000604051905090565b600080fd5b600080fd5b600080fd5b600080fd5b6000601f19601f8301169050919050565b7f4e487b7100000000000000000000000000000000000000000000000000000000600052604160045260246000fd5b61043a826103f1565b810181811067ffffffffffffffff8211171561045957610458610402565b5b80604052505050565b600061046c6103d3565b90506104788282610431565b919050565b600067ffffffffffffffff82111561049857610497610402565b5b6104a1826103f1565b9050602081019050919050565b82818337600083830152505050565b60006104d06104cb8461047d565b610462565b9050828152602081018484840111156104ec576104eb6103ec565b5b6104f78482856104ae565b509392505050565b600082601f830112610514576105136103e7565b5b81356105248482602086016104bd565b91505092915050565b600073ffffffffffffffffffffffffffffffffffffffff82169050919050565b60006105588261052d565b9050919050565b6105688161054d565b811461057357600080fd5b50565b6000813590506105858161055f565b92915050565b600080604083850312156105a2576105a16103dd565b5b600083013567ffffffffffffffff8111156105c0576105bf6103e2565b5b6105cc858286016104ff565b92505060206105dd85828601610576565b9150509250929050565b6000602082840312156105fd576105fc6103dd565b5b600082013567ffffffffffffffff81111561061b5761061a6103e2565b5b610627848285016104ff565b91505092915050565b6000819050919050565b61064381610630565b82525050565b600060ff82169050919050565b61065f81610649565b82525050565b600060408201905061067a600083018561063a565b6106876020830184610656565b9392505050565b6106978161054d565b82525050565b60006020820190506106b2600083018461068e565b92915050565b6000819050919050565b6106cb816106b8565b81146106d657600080fd5b50565b6000813590506106e8816106c2565b92915050565b600060208284031215610704576107036103dd565b5b6000610712848285016106d9565b91505092915050565b6000819050919050565b600061074061073b6107368461052d565b61071b565b61052d565b9050919050565b600061075282610725565b9050919050565b600061076482610747565b9050919050565b61077481610759565b82525050565b600060208201905061078f600083018461076b565b92915050565b600082825260208201905092915050565b7f4e6f74206f776e65720000000000000000000000000000000000000000000000600082015250565b60006107dc600983610795565b91506107e7826107a6565b602082019050919050565b6000602082019050818103600083015261080b816107cf565b9050919050565b7f46656564206e6f74207365740000000000000000000000000000000000000000600082015250565b6000610848600c83610795565b915061085382610812565b602082019050919050565b600060208201905081810360008301526108778161083b565b9050919050565b600069ffffffffffffffffffff82169050919050565b61089d8161087e565b81146108a857600080fd5b50565b6000815190506108ba81610894565b92915050565b6108c981610630565b81146108d457600080fd5b50565b6000815190506108e6816108c0565b92915050565b6000819050919050565b6108ff816108ec565b811461090a57600080fd5b50565b60008151905061091c816108f6565b92915050565b600080600080600060a0868803121561093e5761093d6103dd565b5b600061094c888289016108ab565b955050602061095d888289016108d7565b945050604061096e8882890161090d565b935050606061097f8882890161090d565b9250506080610990888289016108ab565b9150509295509295909350565b6109a681610649565b81146109b157600080fd5b50565b6000815190506109c38161099d565b92915050565b6000602082840312156109df576109de6103dd565b5b60006109ed848285016109b4565b9150509291505056fea26469706673582212204b4086c06f760adbce21212b7503c430ed514b09eb94942252952421f079327b64736f6c63430008180033",
  "linkReferences": {},
  "deployedLinkReferences": {}
}