{
  "_format": "hh-sol-artifact-1",
  "contractName": "WalletFactory",
  "sourceName": "contracts/WalletFactory.sol",
  "abi": [
    {
      "anonymous": false,
      "inputs": [
        {
          "indexed": true,
          "internalType": "address",
          "name": "owner",
          "type": "address"
        },
        {
          "indexed": false,
          "internalType": "address",
          "name": "wallet",
          "type": "address"
        }
      ],
      "name": "WalletCreated",
      "type": "event"
    },
    {
      "inputs": [],
      "name": "createWallet",
      "outputs": [
        {
          "internalType": "address",
          "name": "wallet",
          "type": "address"
        }
      ],
      "stateMutability": "nonpayable",
      "type": "function"
    },
    {
      "inputs": [
        {
          "internalType": "address",
          "name": "owner",
          "type": "address"
        }
      ],
      "name": "getWallets",
      "outputs": [
        {
          "internalType": "address[]",
          "name": "",
          "type": "address[]"
        }
      ],
      "stateMutability": "view",
      "type": "function"
    },
    {
      "inputs": [
        {
          "internalType": "address",
          "name": "",
          "type": "address"
        },
        {
          "internalType": "uint256",
          "name": "",
          "type": "uint256"
        }
      ],
      "name": "walletsOf",
      "outputs": [
        {
          "internalType": "address",
          "name": "",
          "type": "address"
        }
      ],
      "stateMutability": "view",
      "type": "function"
    }
  ],
  "bytecode": "0x608060405234801561001057600080fd5b50610cd8806100206000396000f3fe608060405234801561001057600080fd5b50600436106100415760003560e01c806311ebbf241461004657806326a9567614610064578063422c29a414610094575b600080fd5b61004e6100c4565b60405161005b9190610354565b60405180910390f35b61007e600480360381019061007991906103d6565b6101ec565b60405161008b9190610354565b60405180910390f35b6100ae60048036038101906100a99190610416565b61023a565b6040516100bb9190610501565b60405180910390f35b6000336040516100d390610306565b6100dd9190610354565b604051809103906000f0801580156100f9573d6000803e3d6000fd5b5090506000803373ffffffffffffffffffffffffffffffffffffffff1673ffffffffffffffffffffffffffffffffffffffff168152602001908152602001600020819080600181540180825580915050600190039060005260206000200160009091909190916101000a81548173ffffffffffffffffffffffffffffffffffffffff021916908373ffffffffffffffffffffffffffffffffffffffff1602179055503373ffffffffffffffffffffffffffffffffffffffff167f5b03bfed1c14a02bdeceb5fa582eb1a5765fc0bc64ca0e6af4c20afc9487f081826040516101e19190610354565b60405180910390a290565b6000602052816000526040600020818154811061020857600080fd5b906000526020600020016000915091509054906101000a900473ffffffffffffffffffffffffffffffffffffffff1681565b60606000808373ffffffffffffffffffffffffffffffffffffffff1673ffffffffffffffffffffffffffffffffffffffff1681526020019081526020016000208054806020026020016040519081016040528092919081815260200182805480156102fa57602002820191906000526020600020905b8160009054906101000a900473ffffffffffffffffffffffffffffffffffffffff1673ffffffffffffffffffffffffffffffffffffffff16815260200190600101908083116102b0575b50505050509050919050565b61077f8061052483390190565b600073ffffffffffffffffffffffffffffffffffffffff82169050919050565b600061033e82610313565b9050919050565b61034e81610333565b82525050565b60006020820190506103696000830184610345565b92915050565b600080fd5b61037d81610333565b811461038857600080fd5b50565b60008135905061039a81610374565b92915050565b6000819050919050565b6103b3816103a0565b81146103be57600080fd5b50565b6000813590506103d0816103aa565b92915050565b600080604083850312156103ed576103ec61036f565b5b60006103fb8582860161038b565b925050602061040c858286016103c1565b9150509250929050565b60006020828403121561042c5761042b61036f565b5b600061043a8482850161038b565b91505092915050565b600081519050919050565b600082825260208201905092915050565b6000819050602082019050919050565b61047881610333565b82525050565b600061048a838361046f565b60208301905092915050565b6000602082019050919050565b60006104ae82610443565b6104b8818561044e565b93506104c38361045f565b8060005b838110156104f45781516104db888261047e565b97506104e683610496565b9250506001810190506104c7565b5085935050505092915050565b6000602082019050818103600083015261051b81846104a3565b90509291505056fe608060405234801561001057600080fd5b5060405161077f38038061077f833981810160405281019061003291906100db565b806000806101000a81548173ffffffffffffffffffffffffffffffffffffffff021916908373ffffffffffffffffffffffffffffffffffffffff16021790555050610108565b600080fd5b600073ffffffffffffffffffffffffffffffffffffffff82169050919050565b60006100a88261007d565b9050919050565b6100b88161009d565b81146100c357600080fd5b50565b6000815190506100d5816100af565b92915050565b6000602082840312156100f1576100f0610078565b5b60006100ff848285016100c6565b91505092915050565b610668806101176000396000f3fe6080604052600436106100385760003560e01c806312065fe0146100dd57806364a197f3146101085780638da5cb5b146101315761008d565b3661008d573373ffffffffffffffffffffffffffffffffffffffff167f1e57e3bb474320be3d2c77138f75b7c3941292d647f5f9634e33a8e94e0e069b346040516100839190610371565b60405180910390a2005b3373ffffffffffffffffffffffffffffffffffffffff167f1e57e3bb474320be3d2c77138f75b7c3941292d647f5f9634e33a8e94e0e069b346040516100d39190610371565b60405180910390a2005b3480156100e957600080fd5b506100f261015c565b6040516100ff9190610371565b60405180910390f35b34801561011457600080fd5b5061012f600480360381019061012a919061041b565b610164565b005b34801561013d57600080fd5b50610146610334565b604051610153919061047c565b60405180910390f35b600047905090565b60008054906101000a900473ffffffffffffffffffffffffffffffffffffffff1673ffffffffffffffffffffffffffffffffffffffff163373ffffffffffffffffffffffffffffffffffffffff16146101f2576040517f08c379a00000000000000000000000000000000000000000000000000000000081526004016101e9906104f4565b60405180910390fd5b80471015610235576040517f08c379a000000000000000000000000000000000000000000000000000000000815260040161022c90610560565b60405180910390fd5b60008273ffffffffffffffffffffffffffffffffffffffff168260405161025b906105b1565b60006040518083038185875af1925050503d8060008114610298576040519150601f19603f3d011682016040523d82523d6000602084013e61029d565b606091505b50509050806102e1576040517f08c379a00000000000000000000000000000000000000000000000000000000081526004016102d890610612565b60405180910390fd5b8273ffffffffffffffffffffffffffffffffffffffff167f6109e2559dfa766aaec7118351d48a523f0a4157f49c8d68749c8ac41318ad12836040516103279190610371565b60405180910390a2505050565b60008054906101000a900473ffffffffffffffffffffffffffffffffffffffff1681565b6000819050919050565b61036b81610358565b82525050565b60006020820190506103866000830184610362565b92915050565b600080fd5b600073ffffffffffffffffffffffffffffffffffffffff82169050919050565b60006103bc82610391565b9050919050565b6103cc816103b1565b81146103d757600080fd5b50565b6000813590506103e9816103c3565b92915050565b6103f881610358565b811461040357600080fd5b50565b600081359050610415816103ef565b92915050565b600080604083850312156104325761043161038c565b5b6000610440858286016103da565b925050602061045185828601610406565b9150509250929050565b600061046682610391565b9050919050565b6104768161045b565b82525050565b6000602082019050610491600083018461046d565b92915050565b600082825260208201905092915050565b7f4e6f7420617574686f72697a6564000000000000000000000000000000000000600082015250565b60006104de600e83610497565b91506104e9826104a8565b602082019050919050565b6000602082019050818103600083015261050d816104d1565b9050919050565b7f496e73756666696369656e742062616c616e6365000000000000000000000000600082015250565b600061054a601483610497565b915061055582610514565b602082019050919050565b600060208201905081810360008301526105798161053d565b9050919050565b600081905092915050565b50565b600061059b600083610580565b91506105a68261058b565b600082019050919050565b60006105bc8261058e565b9150819050919050565b7f5472616e73666572206661696c65640000000000000000000000000000000000600082015250565b60006105fc600f83610497565b9150610607826105c6565b602082019050919050565b6000602082019050818103600083015261062b816105ef565b905091905056fea2646970667358221220b1909a10628161a6488d03b6aaabe30706365a9bd733633a765d82fcc675c81264736f6c63430008180033a2646970667358221220928afb0f729757e1f3df228c6dd236e3d8ced9b2d8e8042c667b6f6de3c70b7064736f6c63430008180033",
  "linkReferences": {},
  "deployedLinkReferences": {}
}