{
  "_format": "hh-sol-artifact-1",
  "contractName": "WalletFactory",
  "sourceName": "contracts/WalletFactory.sol",
  "abi": [
    {
      "anonymous": false,
      "inputs": [
        {
          "indexed": true,
          "internalType": "address",
          "name": "owner",
          "type": "address"
        },
        {
          "indexed": false,
          "internalType": "address",
          "name": "wallet",
          "type": "address"
        }
      ],
      "name": "WalletCreated",
      "type": "event"
    },
    {
      "inputs": [],
      "name": "createWallet",
      "outputs": [
        {
          "internalType": "address",
          "name": "wallet",
          "type": "address"
        }
      ],
      "stateMutability": "nonpayable",
      "type": "function"
    },
    {
      "inputs": [
        {
          "internalType": "address",
          "name": "owner",
          "type": "address"
        }
      ],
      "name": "getWallets",
      "outputs": [
        {
          "internalType": "address[]",
          "name": "",
          "type": "address[]"
        }
      ],
      "stateMutability": "view",
      "type": "function"
    },
    {
      "inputs": [
        {
          "internalType": "address",
          "name": "",
          "type": "address"
        },
        {
          "internalType": "uint256",
          "name": "",
          "type": "uint256"
        }
      ],
      "name": "walletsOf",
      "outputs": [
        {
          "internalType": "address",
          "name": "",
          "type": "address"
        }
      ],
      "stateMutability": "view",
      "type": "function"
    }
  ],
  "bytecode": "0x608060405234801561001057600080fd5b50610fd6806100206000396000f3fe608060405234801561001057600080fd5b50600436106100415760003560e01c806311ebbf241461004657806326a9567614610064578063422c29a414610094575b600080fd5b61004e6100c4565b60405161005b9190610354565b60405180910390f35b61007e600480360381019061007991906103d6565b6101ec565b60405161008b9190610354565b60405180910390f35b6100ae60048036038101906100a99190610416565b61023a565b6040516100bb9190610501565b60405180910390f35b6000336040516100d390610306565b6100dd9190610354565b604051809103906000f0801580156100f9573d6000803e3d6000fd5b5090506000803373ffffffffffffffffffffffffffffffffffffffff1673ffffffffffffffffffffffffffffffffffffffff168152602001908152602001600020819080600181540180825580915050600190039060005260206000200160009091909190916101000a81548173ffffffffffffffffffffffffffffffffffffffff021916908373ffffffffffffffffffffffffffffffffffffffff1602179055503373ffffffffffffffffffffffffffffffffffffffff167f5b03bfed1c14a02bdeceb5fa582eb1a5765fc0bc64ca0e6af4c20afc9487f081826040516101e19190610354565b60405180910390a290565b6000602052816000526040600020818154811061020857600080fd5b906000526020600020016000915091509054906101000a900473ffffffffffffffffffffffffffffffffffffffff1681565b60606000808373ffffffffffffffffffffffffffffffffffffffff1673ffffffffffffffffffffffffffffffffffffffff1681526020019081526020016000208054806020026020016040519081016040528092919081815260200182805480156102fa57602002820191906000526020600020905b8160009054906101000a900473ffffffffffffffffffffffffffffffffffffffff1673ffffffffffffffffffffffffffffffffffffffff16815260200190600101908083116102b0575b50505050509050919050565b610a7d8061052483390190565b600073ffffffffffffffffffffffffffffffffffffffff82169050919050565b600061033e82610313565b9050919050565b61034e81610333565b82525050565b60006020820190506103696000830184610345565b92915050565b600080fd5b61037d81610333565b811461038857600080fd5b50565b60008135905061039a81610374565b92915050565b6000819050919050565b6103b3816103a0565b81146103be57600080fd5b50565b6000813590506103d0816103aa565b92915050565b600080604083850312156103ed576103ec61036f565b5b60006103fb8582860161038b565b925050602061040c858286016103c1565b9150509250929050565b60006020828403121561042c5761042b61036f565b5b600061043a8482850161038b565b91505092915050565b600081519050919050565b600082825260208201905092915050565b6000819050602082019050919050565b61047881610333565b82525050565b600061048a838361046f565b60208301905092915050565b6000602082019050919050565b60006104ae82610443565b6104b8818561044e565b93506104c38361045f565b8060005b838110156104f45781516104db888261047e565b97506104e683610496565b9250506001810190506104c7565b5085935050505092915050565b6000602082019050818103600083015261051b81846104a3565b90509291505056fe608060405234801561001057600080fd5b50604051610a7d380380610a7d833981810160405281019061003291906101e2565b80600073ffffffffffffffffffffffffffffffffffffffff168173ffffffffffffffffffffffffffffffffffffffff16036100a55760006040517f1e4fbdf700000000000000000000000000000000000000000000000000000000815260040161009c919061021e565b60405180910390fd5b6100b4816100bb60201b60201c565b5050610239565b60008060009054906101000a900473ffffffffffffffffffffffffffffffffffffffff169050816000806101000a81548173ffffffffffffffffffffffffffffffffffffffff021916908373ffffffffffffffffffffffffffffffffffffffff1602179055508173ffffffffffffffffffffffffffffffffffffffff168173ffffffffffffffffffffffffffffffffffffffff167f8be0079c531659141344cd1fd0a4f28419497f9722a3daafe3b4186f6b6457e060405160405180910390a35050565b600080fd5b600073ffffffffffffffffffffffffffffffffffffffff82169050919050565b60006101af82610184565b9050919050565b6101bf816101a4565b81146101ca57600080fd5b50565b6000815190506101dc816101b6565b92915050565b6000602082840312156101f8576101f761017f565b5b6000610206848285016101cd565b91505092915050565b610218816101a4565b82525050565b6000602082019050610233600083018461020f565b92915050565b610835806102486000396000f3fe60806040526004361061004e5760003560e01c8063715018a61461005a5780637b1a4909146100715780638da5cb5b1461009a578063f2fde38b146100c5578063f5537ede146100ee57610055565b3661005557005b600080fd5b34801561006657600080fd5b5061006f610117565b005b34801561007d57600080fd5b5061009860048036038101906100939190610549565b61012b565b005b3480156100a657600080fd5b506100af6101e4565b6040516100bc9190610598565b60405180910390f35b3480156100d157600080fd5b506100ec60048036038101906100e791906105b3565b61020d565b005b3480156100fa57600080fd5b50610115600480360381019061011091906105e0565b610293565b005b61011f61035d565b61012960006103e4565b565b61013361035d565b60008273ffffffffffffffffffffffffffffffffffffffff168260405161015990610664565b60006040518083038185875af1925050503d8060008114610196576040519150601f19603f3d011682016040523d82523d6000602084013e61019b565b606091505b50509050806101df576040517f08c379a00000000000000000000000000000000000000000000000000000000081526004016101d6906106d6565b60405180910390fd5b505050565b60008060009054906101000a900473ffffffffffffffffffffffffffffffffffffffff16905090565b61021561035d565b600073ffffffffffffffffffffffffffffffffffffffff168173ffffffffffffffffffffffffffffffffffffffff16036102875760006040517f1e4fbdf700000000000000000000000000000000000000000000000000000000815260040161027e9190610598565b60405180910390fd5b610290816103e4565b50565b61029b61035d565b8273ffffffffffffffffffffffffffffffffffffffff1663a9059cbb83836040518363ffffffff1660e01b81526004016102d6929190610705565b6020604051808303816000875af11580156102f5573d6000803e3d6000fd5b505050506040513d601f19601f820116820180604052508101906103199190610766565b610358576040517f08c379a000000000000000000000000000000000000000000000000000000000815260040161034f906107df565b60405180910390fd5b505050565b6103656104a8565b73ffffffffffffffffffffffffffffffffffffffff166103836101e4565b73ffffffffffffffffffffffffffffffffffffffff16146103e2576103a66104a8565b6040517f118cdaa70000000000000000000000000000000000000000000000000000000081526004016103d99190610598565b60405180910390fd5b565b60008060009054906101000a900473ffffffffffffffffffffffffffffffffffffffff169050816000806101000a81548173ffffffffffffffffffffffffffffffffffffffff021916908373ffffffffffffffffffffffffffffffffffffffff1602179055508173ffffffffffffffffffffffffffffffffffffffff168173ffffffffffffffffffffffffffffffffffffffff167f8be0079c531659141344cd1fd0a4f28419497f9722a3daafe3b4186f6b6457e060405160405180910390a35050565b600033905090565b600080fd5b600073ffffffffffffffffffffffffffffffffffffffff82169050919050565b60006104e0826104b5565b9050919050565b6104f0816104d5565b81146104fb57600080fd5b50565b60008135905061050d816104e7565b92915050565b6000819050919050565b61052681610513565b811461053157600080fd5b50565b6000813590506105438161051d565b92915050565b600080604083850312156105605761055f6104b0565b5b600061056e858286016104fe565b925050602061057f85828601610534565b9150509250929050565b610592816104d5565b82525050565b60006020820190506105ad6000830184610589565b92915050565b6000602082840312156105c9576105c86104b0565b5b60006105d7848285016104fe565b91505092915050565b6000806000606084860312156105f9576105f86104b0565b5b6000610607868287016104fe565b9350506020610618868287016104fe565b925050604061062986828701610534565b9150509250925092565b600081905092915050565b50565b600061064e600083610633565b91506106598261063e565b600082019050919050565b600061066f82610641565b9150819050919050565b600082825260208201905092915050565b7f455448207472616e73666572206661696c656400000000000000000000000000600082015250565b60006106c0601383610679565b91506106cb8261068a565b602082019050919050565b600060208201905081810360008301526106ef816106b3565b9050919050565b6106ff81610513565b82525050565b600060408201905061071a6000830185610589565b61072760208301846106f6565b9392505050565b60008115159050919050565b6107438161072e565b811461074e57600080fd5b50565b6000815190506107608161073a565b92915050565b60006020828403121561077c5761077b6104b0565b5b600061078a84828501610751565b91505092915050565b7f746f6b656e207472616e73666572206661696c65640000000000000000000000600082015250565b60006107c9601583610679565b91506107d482610793565b602082019050919050565b600060208201905081810360008301526107f8816107bc565b905091905056fea2646970667358221220dfe3ea549489b88bbd742416009e4873c21bdcf13b12fe4f9e8ec708b17dcfa664736f6c63430008180033a264697066735822122073d272410b40b5cd3eb5c90f216c8234f9193c09c1e6bfa71faa5983ecefb42364736f6c63430008180033",
  "linkReferences": {},
  "deployedLinkReferences": {}
}