{
  "_format": "hh-sol-artifact-1",
  "contractName": "WalletFactory",
  "sourceName": "contracts/WalletFactory.sol",
  "abi": [
    {
      "inputs": [
        {
          "internalType": "address",
          "name": "_swap",
          "type": "address"
        },
        {
          "internalType": "address",
          "name": "_usdc",
          "type": "address"
        }
      ],
      "stateMutability": "nonpayable",
      "type": "constructor"
    },
    {
      "anonymous": false,
      "inputs": [
        {
          "indexed": true,
          "internalType": "address",
          "name": "owner",
          "type": "address"
        },
        {
          "indexed": false,
          "internalType": "address",
          "name": "wallet",
          "type": "address"
        }
      ],
      "name": "WalletCreated",
      "type": "event"
    },
    {
      "inputs": [],
      "name": "createWallet",
      "outputs": [],
      "stateMutability": "nonpayable",
      "type": "function"
    },
    {
      "inputs": [
        {
          "internalType": "address",
          "name": "user",
          "type": "address"
        }
      ],
      "name": "getUserWallets",
      "outputs": [
        {
          "internalType": "address[]",
          "name": "",
          "type": "address[]"
        }
      ],
      "stateMutability": "view",
      "type": "function"
    },
    {
      "inputs": [
        {
          "internalType": "address",
          "name": "user",
          "type": "address"
        }
      ],
      "name": "getWallets",
      "outputs": [
        {
          "internalType": "address[]",
          "name": "",
          "type": "address[]"
        }
      ],
      "stateMutability": "view",
      "type": "function"
    },
    {
      "inputs": [],
      "name": "swap",
      "outputs": [
        {
          "internalType": "address",
          "name": "",
          "type": "address"
        }
      ],
      "stateMutability": "view",
      "type": "function"
    },
    {
      "inputs": [],
      "name": "usdc",
      "outputs": [
        {
          "internalType": "address",
          "name": "",
          "type": "address"
        }
      ],
      "stateMutability": "view",
      "type": "function"
    },
    {
      "inputs": [
        {
          "internalType": "address",
          "name": "",
          "type": "address"
        },
        {
          "internalType": "uint256",
          "name": "",
          "type": "uint256"
        }
      ],
      "name": "userWallets",
      "outputs": [
        {
          "internalType": "address",
          "name": "",
          "type": "address"
        }
      ],
      "stateMutability": "view",
      "type": "function"
    }
  ],
  "bytecode": "0x60c06040523480156200001157600080fd5b5060405162002a5738038062002a578339818101604052810190620000379190620001f5565b600073ffffffffffffffffffffffffffffffffffffffff168273ffffffffffffffffffffffffffffffffffffffff1603620000a9576040517f08c379a0000000000000000000000000000000000000000000000000000000008152600401620000a0906200029d565b60405180910390fd5b600073ffffffffffffffffffffffffffffffffffffffff168173ffffffffffffffffffffffffffffffffffffffff16036200011b576040517f08c379a000000000000000000000000000000000000000000000000000000000815260040162000112906200030f565b60405180910390fd5b8173ffffffffffffffffffffffffffffffffffffffff1660808173ffffffffffffffffffffffffffffffffffffffff16815250508073ffffffffffffffffffffffffffffffffffffffff1660a08173ffffffffffffffffffffffffffffffffffffffff1681525050505062000331565b600080fd5b600073ffffffffffffffffffffffffffffffffffffffff82169050919050565b6000620001bd8262000190565b9050919050565b620001cf81620001b0565b8114620001db57600080fd5b50565b600081519050620001ef81620001c4565b92915050565b600080604083850312156200020f576200020e6200018b565b5b60006200021f85828601620001de565b92505060206200023285828601620001de565b9150509250929050565b600082825260208201905092915050565b7f73776170207a65726f0000000000000000000000000000000000000000000000600082015250565b6000620002856009836200023c565b915062000292826200024d565b602082019050919050565b60006020820190508181036000830152620002b88162000276565b9050919050565b7f75736463207a65726f0000000000000000000000000000000000000000000000600082015250565b6000620002f76009836200023c565b91506200030482620002bf565b602082019050919050565b600060208201905081810360008301526200032a81620002e8565b9050919050565b60805160a0516126f262000365600039600081816101d601526103250152600081816101b501526104e501526126f26000f3fe60806040523480156200001157600080fd5b50600436106200006a5760003560e01c80630155e098146200006f57806311ebbf2414620000a55780633e413bee14620000b1578063422c29a414620000d35780636cbae15714620001095780638119c065146200013f575b600080fd5b6200008d6004803603810190620000879190620005ba565b62000161565b6040516200009c919062000612565b60405180910390f35b620000af620001b0565b005b620000bb62000323565b604051620000ca919062000612565b60405180910390f35b620000f16004803603810190620000eb91906200062f565b62000347565b6040516200010091906200072f565b60405180910390f35b6200012760048036038101906200012191906200062f565b62000415565b6040516200013691906200072f565b60405180910390f35b62000149620004e3565b60405162000158919062000612565b60405180910390f35b600060205281600052604060002081815481106200017e57600080fd5b906000526020600020016000915091509054906101000a900473ffffffffffffffffffffffffffffffffffffffff1681565b6000337f00000000000000000000000000000000000000000000000000000000000000007f0000000000000000000000000000000000000000000000000000000000000000604051620002039062000507565b620002119392919062000753565b604051809103906000f0801580156200022e573d6000803e3d6000fd5b5090506000803373ffffffffffffffffffffffffffffffffffffffff1673ffffffffffffffffffffffffffffffffffffffff168152602001908152602001600020819080600181540180825580915050600190039060005260206000200160009091909190916101000a81548173ffffffffffffffffffffffffffffffffffffffff021916908373ffffffffffffffffffffffffffffffffffffffff1602179055503373ffffffffffffffffffffffffffffffffffffffff167f5b03bfed1c14a02bdeceb5fa582eb1a5765fc0bc64ca0e6af4c20afc9487f0818260405162000318919062000612565b60405180910390a250565b7f000000000000000000000000000000000000000000000000000000000000000081565b60606000808373ffffffffffffffffffffffffffffffffffffffff1673ffffffffffffffffffffffffffffffffffffffff1681526020019081526020016000208054806020026020016040519081016040528092919081815260200182805480156200040957602002820191906000526020600020905b8160009054906101000a900473ffffffffffffffffffffffffffffffffffffffff1673ffffffffffffffffffffffffffffffffffffffff1681526020019060010190808311620003be575b50505050509050919050565b60606000808373ffffffffffffffffffffffffffffffffffffffff1673ffffffffffffffffffffffffffffffffffffffff168152602001908152602001600020805480602002602001604051908101604052809291908181526020018280548015620004d757602002820191906000526020600020905b8160009054906101000a900473ffffffffffffffffffffffffffffffffffffffff1673ffffffffffffffffffffffffffffffffffffffff16815260200190600101908083116200048c575b50505050509050919050565b7f000000000000000000000000000000000000000000000000000000000000000081565b611f2c806200079183390190565b600080fd5b600073ffffffffffffffffffffffffffffffffffffffff82169050919050565b600062000547826200051a565b9050919050565b62000559816200053a565b81146200056557600080fd5b50565b60008135905062000579816200054e565b92915050565b6000819050919050565b62000594816200057f565b8114620005a057600080fd5b50565b600081359050620005b48162000589565b92915050565b60008060408385031215620005d457620005d362000515565b5b6000620005e48582860162000568565b9250506020620005f785828601620005a3565b9150509250929050565b6200060c816200053a565b82525050565b600060208201905062000629600083018462000601565b92915050565b60006020828403121562000648576200064762000515565b5b6000620006588482850162000568565b91505092915050565b600081519050919050565b600082825260208201905092915050565b6000819050602082019050919050565b62000698816200053a565b82525050565b6000620006ac83836200068d565b60208301905092915050565b6000602082019050919050565b6000620006d28262000661565b620006de81856200066c565b9350620006eb836200067d565b8060005b83811015620007225781516200070688826200069e565b97506200071383620006b8565b925050600181019050620006ef565b5085935050505092915050565b600060208201905081810360008301526200074b8184620006c5565b905092915050565b60006060820190506200076a600083018662000601565b62000779602083018562000601565b62000788604083018462000601565b94935050505056fe60806040523480156200001157600080fd5b5060405162001f2c38038062001f2c8339818101604052810190620000379190620003a4565b82600073ffffffffffffffffffffffffffffffffffffffff168173ffffffffffffffffffffffffffffffffffffffff1603620000ad5760006040517f1e4fbdf7000000000000000000000000000000000000000000000000000000008152600401620000a4919062000411565b60405180910390fd5b620000be816200027660201b60201c565b5060018081905550600073ffffffffffffffffffffffffffffffffffffffff168273ffffffffffffffffffffffffffffffffffffffff160362000138576040517f08c379a00000000000000000000000000000000000000000000000000000000081526004016200012f906200048f565b60405180910390fd5b600073ffffffffffffffffffffffffffffffffffffffff168173ffffffffffffffffffffffffffffffffffffffff1603620001aa576040517f08c379a0000000000000000000000000000000000000000000000000000000008152600401620001a19062000501565b60405180910390fd5b33600260006101000a81548173ffffffffffffffffffffffffffffffffffffffff021916908373ffffffffffffffffffffffffffffffffffffffff16021790555081600460006101000a81548173ffffffffffffffffffffffffffffffffffffffff021916908373ffffffffffffffffffffffffffffffffffffffff16021790555080600360006101000a81548173ffffffffffffffffffffffffffffffffffffffff021916908373ffffffffffffffffffffffffffffffffffffffff16021790555050505062000523565b60008060009054906101000a900473ffffffffffffffffffffffffffffffffffffffff169050816000806101000a81548173ffffffffffffffffffffffffffffffffffffffff021916908373ffffffffffffffffffffffffffffffffffffffff1602179055508173ffffffffffffffffffffffffffffffffffffffff168173ffffffffffffffffffffffffffffffffffffffff167f8be0079c531659141344cd1fd0a4f28419497f9722a3daafe3b4186f6b6457e060405160405180910390a35050565b600080fd5b600073ffffffffffffffffffffffffffffffffffffffff82169050919050565b60006200036c826200033f565b9050919050565b6200037e816200035f565b81146200038a57600080fd5b50565b6000815190506200039e8162000373565b92915050565b600080600060608486031215620003c057620003bf6200033a565b5b6000620003d0868287016200038d565b9350506020620003e3868287016200038d565b9250506040620003f6868287016200038d565b9150509250925092565b6200040b816200035f565b82525050565b600060208201905062000428600083018462000400565b92915050565b600082825260208201905092915050565b7f73776170207a65726f0000000000000000000000000000000000000000000000600082015250565b6000620004776009836200042e565b915062000484826200043f565b602082019050919050565b60006020820190508181036000830152620004aa8162000468565b9050919050565b7f75736463207a65726f0000000000000000000000000000000000000000000000600082015250565b6000620004e96009836200042e565b9150620004f682620004b1565b602082019050919050565b600060208201905081810360008301526200051c81620004da565b9050919050565b6119f980620005336000396000f3fe6080604052600436106100ab5760003560e01c80638119c065116100645780638119c0651461020157806387e3dfba1461022c5780638da5cb5b146102695780639b96ce3d14610294578063c45a0155146102d1578063f2fde38b146102fc57610100565b806312065fe0146101055780632fdcfbd2146101305780633aecd0e3146101595780633e413bee1461019657806364a197f3146101c1578063715018a6146101ea57610100565b36610100573373ffffffffffffffffffffffffffffffffffffffff167f88a5966d370b9919b20f3e2c13ff65706f196a4e32cc2c12bf57088f88525874346040516100f69190611107565b60405180910390a2005b600080fd5b34801561011157600080fd5b5061011a610325565b6040516101279190611107565b60405180910390f35b34801561013c57600080fd5b50610157600480360381019061015291906111b1565b61032d565b005b34801561016557600080fd5b50610180600480360381019061017b9190611204565b61051b565b60405161018d9190611107565b60405180910390f35b3480156101a257600080fd5b506101ab61059e565b6040516101b89190611290565b60405180910390f35b3480156101cd57600080fd5b506101e860048036038101906101e391906112e9565b6105c4565b005b3480156101f657600080fd5b506101ff61071e565b005b34801561020d57600080fd5b50610216610732565b604051610223919061134a565b60405180910390f35b34801561023857600080fd5b50610253600480360381019061024e9190611365565b610758565b6040516102609190611107565b60405180910390f35b34801561027557600080fd5b5061027e610a16565b60405161028b91906113b4565b60405180910390f35b3480156102a057600080fd5b506102bb60048036038101906102b69190611365565b610a3f565b6040516102c89190611107565b60405180910390f35b3480156102dd57600080fd5b506102e6610ea0565b6040516102f391906113b4565b60405180910390f35b34801561030857600080fd5b50610323600480360381019061031e9190611204565b610ec6565b005b600047905090565b610335610f4c565b61033d610fd3565b600073ffffffffffffffffffffffffffffffffffffffff168373ffffffffffffffffffffffffffffffffffffffff16141580156103a75750600073ffffffffffffffffffffffffffffffffffffffff168273ffffffffffffffffffffffffffffffffffffffff1614155b6103e6576040517f08c379a00000000000000000000000000000000000000000000000000000000081526004016103dd9061142c565b60405180910390fd5b60008373ffffffffffffffffffffffffffffffffffffffff1663a9059cbb84846040518363ffffffff1660e01b815260040161042392919061144c565b6020604051808303816000875af1158015610442573d6000803e3d6000fd5b505050506040513d601f19601f8201168201806040525081019061046691906114ad565b9050806104a8576040517f08c379a000000000000000000000000000000000000000000000000000000000815260040161049f90611526565b60405180910390fd5b8273ffffffffffffffffffffffffffffffffffffffff168473ffffffffffffffffffffffffffffffffffffffff167f3ddb739c68dd901671f09fbe0bc2344c179ed55f8e8110a7c7a3c5665bd9518d846040516105059190611107565b60405180910390a350610516611019565b505050565b60008173ffffffffffffffffffffffffffffffffffffffff166370a08231306040518263ffffffff1660e01b815260040161055691906113b4565b602060405180830381865afa158015610573573d6000803e3d6000fd5b505050506040513d601f19601f82011682018060405250810190610597919061155b565b9050919050565b600360009054906101000a900473ffffffffffffffffffffffffffffffffffffffff1681565b6105cc610f4c565b6105d4610fd3565b80471015610617576040517f08c379a000000000000000000000000000000000000000000000000000000000815260040161060e906115d4565b60405180910390fd5b60008273ffffffffffffffffffffffffffffffffffffffff168260405161063d90611625565b60006040518083038185875af1925050503d806000811461067a576040519150601f19603f3d011682016040523d82523d6000602084013e61067f565b606091505b50509050806106c3576040517f08c379a00000000000000000000000000000000000000000000000000000000081526004016106ba90611686565b60405180910390fd5b8273ffffffffffffffffffffffffffffffffffffffff167f510ffb4dcab972ae9d2007a58e13f1b0881776d23cd8f5cc32f8c5be2dbf70d2836040516107099190611107565b60405180910390a25061071a611019565b5050565b610726610f4c565b6107306000611022565b565b600460009054906101000a900473ffffffffffffffffffffffffffffffffffffffff1681565b6000610762610f4c565b61076a610fd3565b600083116107ad576040517f08c379a00000000000000000000000000000000000000000000000000000000081526004016107a4906116f2565b60405180910390fd5b824710156107f0576040517f08c379a00000000000000000000000000000000000000000000000000000000081526004016107e79061175e565b60405180910390fd5b6000600460009054906101000a900473ffffffffffffffffffffffffffffffffffffffff1673ffffffffffffffffffffffffffffffffffffffff16639201ffd3856040518263ffffffff1660e01b815260040161084d9190611107565b602060405180830381865afa15801561086a573d6000803e3d6000fd5b505050506040513d601f19601f8201168201806040525081019061088e919061155b565b9050828110156108d3576040517f08c379a00000000000000000000000000000000000000000000000000000000081526004016108ca906117ca565b60405180910390fd5b600460009054906101000a900473ffffffffffffffffffffffffffffffffffffffff1673ffffffffffffffffffffffffffffffffffffffff16635c76a75485306040518363ffffffff1660e01b815260040161092f91906113b4565b60206040518083038185885af115801561094d573d6000803e3d6000fd5b50505050506040513d601f19601f82011682018060405250810190610972919061155b565b9150828210156109b7576040517f08c379a00000000000000000000000000000000000000000000000000000000081526004016109ae90611836565b60405180910390fd5b3073ffffffffffffffffffffffffffffffffffffffff167f85c707614d71e9ab2392e05b049951e0f05967a6b4dbd9fbc6e922cb53d28d2285846040516109ff929190611856565b60405180910390a250610a10611019565b92915050565b60008060009054906101000a900473ffffffffffffffffffffffffffffffffffffffff16905090565b6000610a49610f4c565b610a51610fd3565b60008311610a94576040517f08c379a0000000000000000000000000000000000000000000000000000000008152600401610a8b906116f2565b60405180910390fd5b82600360009054906101000a900473ffffffffffffffffffffffffffffffffffffffff1673ffffffffffffffffffffffffffffffffffffffff166370a08231306040518263ffffffff1660e01b8152600401610af091906113b4565b602060405180830381865afa158015610b0d573d6000803e3d6000fd5b505050506040513d601f19601f82011682018060405250810190610b31919061155b565b1015610b72576040517f08c379a0000000000000000000000000000000000000000000000000000000008152600401610b69906118cb565b60405180910390fd5b6000600460009054906101000a900473ffffffffffffffffffffffffffffffffffffffff1673ffffffffffffffffffffffffffffffffffffffff1663f794dbe6856040518263ffffffff1660e01b8152600401610bcf9190611107565b602060405180830381865afa158015610bec573d6000803e3d6000fd5b505050506040513d601f19601f82011682018060405250810190610c10919061155b565b905082811015610c55576040517f08c379a0000000000000000000000000000000000000000000000000000000008152600401610c4c90611937565b60405180910390fd5b6000600360009054906101000a900473ffffffffffffffffffffffffffffffffffffffff1673ffffffffffffffffffffffffffffffffffffffff1663095ea7b3600460009054906101000a900473ffffffffffffffffffffffffffffffffffffffff16876040518363ffffffff1660e01b8152600401610cd692919061144c565b6020604051808303816000875af1158015610cf5573d6000803e3d6000fd5b505050506040513d601f19601f82011682018060405250810190610d1991906114ad565b905080610d5b576040517f08c379a0000000000000000000000000000000000000000000000000000000008152600401610d52906119a3565b60405180910390fd5b600460009054906101000a900473ffffffffffffffffffffffffffffffffffffffff1673ffffffffffffffffffffffffffffffffffffffff16631ddbc3d630876040518363ffffffff1660e01b8152600401610db892919061144c565b6020604051808303816000875af1158015610dd7573d6000803e3d6000fd5b505050506040513d601f19601f82011682018060405250810190610dfb919061155b565b925083831015610e40576040517f08c379a0000000000000000000000000000000000000000000000000000000008152600401610e3790611836565b60405180910390fd5b3073ffffffffffffffffffffffffffffffffffffffff167f614e16dfb02ba06c376033aaab119079e3d5961c70a942d2f0a081a59f2acb138685604051610e88929190611856565b60405180910390a25050610e9a611019565b92915050565b600260009054906101000a900473ffffffffffffffffffffffffffffffffffffffff1681565b610ece610f4c565b600073ffffffffffffffffffffffffffffffffffffffff168173ffffffffffffffffffffffffffffffffffffffff1603610f405760006040517f1e4fbdf7000000000000000000000000000000000000000000000000000000008152600401610f3791906113b4565b60405180910390fd5b610f4981611022565b50565b610f546110e6565b73ffffffffffffffffffffffffffffffffffffffff16610f72610a16565b73ffffffffffffffffffffffffffffffffffffffff1614610fd157610f956110e6565b6040517f118cdaa7000000000000000000000000000000000000000000000000000000008152600401610fc891906113b4565b60405180910390fd5b565b60026001540361100f576040517f3ee5aeb500000000000000000000000000000000000000000000000000000000815260040160405180910390fd5b6002600181905550565b60018081905550565b60008060009054906101000a900473ffffffffffffffffffffffffffffffffffffffff169050816000806101000a81548173ffffffffffffffffffffffffffffffffffffffff021916908373ffffffffffffffffffffffffffffffffffffffff1602179055508173ffffffffffffffffffffffffffffffffffffffff168173ffffffffffffffffffffffffffffffffffffffff167f8be0079c531659141344cd1fd0a4f28419497f9722a3daafe3b4186f6b6457e060405160405180910390a35050565b600033905090565b6000819050919050565b611101816110ee565b82525050565b600060208201905061111c60008301846110f8565b92915050565b600080fd5b600073ffffffffffffffffffffffffffffffffffffffff82169050919050565b600061115282611127565b9050919050565b61116281611147565b811461116d57600080fd5b50565b60008135905061117f81611159565b92915050565b61118e816110ee565b811461119957600080fd5b50565b6000813590506111ab81611185565b92915050565b6000806000606084860312156111ca576111c9611122565b5b60006111d886828701611170565b93505060206111e986828701611170565b92505060406111fa8682870161119c565b9150509250925092565b60006020828403121561121a57611219611122565b5b600061122884828501611170565b91505092915050565b6000819050919050565b600061125661125161124c84611127565b611231565b611127565b9050919050565b60006112688261123b565b9050919050565b600061127a8261125d565b9050919050565b61128a8161126f565b82525050565b60006020820190506112a56000830184611281565b92915050565b60006112b682611127565b9050919050565b6112c6816112ab565b81146112d157600080fd5b50565b6000813590506112e3816112bd565b92915050565b60008060408385031215611300576112ff611122565b5b600061130e858286016112d4565b925050602061131f8582860161119c565b9150509250929050565b60006113348261125d565b9050919050565b61134481611329565b82525050565b600060208201905061135f600083018461133b565b92915050565b6000806040838503121561137c5761137b611122565b5b600061138a8582860161119c565b925050602061139b8582860161119c565b9150509250929050565b6113ae81611147565b82525050565b60006020820190506113c960008301846113a5565b92915050565b600082825260208201905092915050565b7f61646472657373207a65726f0000000000000000000000000000000000000000600082015250565b6000611416600c836113cf565b9150611421826113e0565b602082019050919050565b6000602082019050818103600083015261144581611409565b9050919050565b600060408201905061146160008301856113a5565b61146e60208301846110f8565b9392505050565b60008115159050919050565b61148a81611475565b811461149557600080fd5b50565b6000815190506114a781611481565b92915050565b6000602082840312156114c3576114c2611122565b5b60006114d184828501611498565b91505092915050565b7f546f6b656e207472616e73666572206661696c65640000000000000000000000600082015250565b60006115106015836113cf565b915061151b826114da565b602082019050919050565b6000602082019050818103600083015261153f81611503565b9050919050565b60008151905061155581611185565b92915050565b60006020828403121561157157611570611122565b5b600061157f84828501611546565b91505092915050565b7f53616c646f20696e73756666696369656e746500000000000000000000000000600082015250565b60006115be6013836113cf565b91506115c982611588565b602082019050919050565b600060208201905081810360008301526115ed816115b1565b9050919050565b600081905092915050565b50565b600061160f6000836115f4565b915061161a826115ff565b600082019050919050565b600061163082611602565b9150819050919050565b7f54726173666572696d656e746f204554482066616c6c69746f00000000000000600082015250565b60006116706019836113cf565b915061167b8261163a565b602082019050919050565b6000602082019050818103600083015261169f81611663565b9050919050565b7f5a65726f20616d6f756e74000000000000000000000000000000000000000000600082015250565b60006116dc600b836113cf565b91506116e7826116a6565b602082019050919050565b6000602082019050818103600083015261170b816116cf565b9050919050565b7f45544820696e73756666696369656e7465000000000000000000000000000000600082015250565b60006117486011836113cf565b915061175382611712565b602082019050919050565b600060208201905081810360008301526117778161173b565b9050919050565b7f536c6970706167653a206d696e557364634f7574000000000000000000000000600082015250565b60006117b46014836113cf565b91506117bf8261177e565b602082019050919050565b600060208201905081810360008301526117e3816117a7565b9050919050565b7f536c6970706167653a206f757400000000000000000000000000000000000000600082015250565b6000611820600d836113cf565b915061182b826117ea565b602082019050919050565b6000602082019050818103600083015261184f81611813565b9050919050565b600060408201905061186b60008301856110f8565b61187860208301846110f8565b9392505050565b7f5553444320696e73756666696369656e74650000000000000000000000000000600082015250565b60006118b56012836113cf565b91506118c08261187f565b602082019050919050565b600060208201905081810360008301526118e4816118a8565b9050919050565b7f536c6970706167653a206d696e4574684f757400000000000000000000000000600082015250565b60006119216013836113cf565b915061192c826118eb565b602082019050919050565b6000602082019050818103600083015261195081611914565b9050919050565b7f417070726f7665206661696c6564000000000000000000000000000000000000600082015250565b600061198d600e836113cf565b915061199882611957565b602082019050919050565b600060208201905081810360008301526119bc81611980565b905091905056fea26469706673582212208553f110d77f0d171a76ddd0471f324b940df1e93b3ed8e932c565261c20e4d464736f6c63430008180033a2646970667358221220318ff03c1cc98ebc0b6ff357e519fbf1a2fd73b55f9601f566b3510e9e0ef80164736f6c63430008180033",
  "linkReferences": {},
  "deployedLinkReferences": {}
}